{
	"contracts/final.sol": {
		"Marketplace": {
			"abi": [
				{
					"inputs": [],
					"stateMutability": "nonpayable",
					"type": "constructor"
				},
				{
					"anonymous": false,
					"inputs": [],
					"name": "MissionComplete",
					"type": "event"
				},
				{
					"inputs": [],
					"name": "checkStatus",
					"outputs": [
						{
							"internalType": "enum Marketplace.ShippingStatus",
							"name": "",
							"type": "uint8"
						}
					],
					"stateMutability": "payable",
					"type": "function"
				},
				{
					"inputs": [],
					"name": "deliver",
					"outputs": [],
					"stateMutability": "nonpayable",
					"type": "function"
				},
				{
					"inputs": [],
					"name": "getStatus",
					"outputs": [
						{
							"internalType": "enum Marketplace.ShippingStatus",
							"name": "",
							"type": "uint8"
						}
					],
					"stateMutability": "view",
					"type": "function"
				},
				{
					"inputs": [],
					"name": "ship",
					"outputs": [],
					"stateMutability": "nonpayable",
					"type": "function"
				},
				{
					"inputs": [],
					"name": "status",
					"outputs": [
						{
							"internalType": "enum Marketplace.ShippingStatus",
							"name": "",
							"type": "uint8"
						}
					],
					"stateMutability": "view",
					"type": "function"
				}
			],
			"devdoc": {
				"kind": "dev",
				"methods": {},
				"version": 1
			},
			"evm": {
				"assembly": "    /* \"contracts/final.sol\":62:1238  contract Marketplace {... */\n  mstore(0x40, 0x80)\n    /* \"contracts/final.sol\":294:387  constructor() {... */\n  callvalue\n  dup1\n  iszero\n  tag_1\n  jumpi\n  0x00\n  dup1\n  revert\ntag_1:\n  pop\n    /* \"contracts/final.sol\":328:350  ShippingStatus.Pending */\n  0x00\n    /* \"contracts/final.sol\":319:325  status */\n  dup1\n  0x00\n    /* \"contracts/final.sol\":319:350  status = ShippingStatus.Pending */\n  0x0100\n  exp\n  dup2\n  sload\n  dup2\n  0xff\n  mul\n  not\n  and\n  swap1\n  dup4\n  0x02\n  dup2\n  gt\n  iszero\n  tag_4\n  jumpi\n  tag_5\n  tag_6\n  jump\t// in\ntag_5:\ntag_4:\n  mul\n  or\n  swap1\n  sstore\n  pop\n    /* \"contracts/final.sol\":369:379  msg.sender */\n  caller\n    /* \"contracts/final.sol\":361:366  owner */\n  0x00\n  0x01\n    /* \"contracts/final.sol\":361:379  owner = msg.sender */\n  0x0100\n  exp\n  dup2\n  sload\n  dup2\n  0xffffffffffffffffffffffffffffffffffffffff\n  mul\n  not\n  and\n  swap1\n  dup4\n  0xffffffffffffffffffffffffffffffffffffffff\n  and\n  mul\n  or\n  swap1\n  sstore\n  pop\n    /* \"contracts/final.sol\":62:1238  contract Marketplace {... */\n  jump(tag_7)\n    /* \"#utility.yul\":7:187   */\ntag_6:\n    /* \"#utility.yul\":55:132   */\n  0x4e487b7100000000000000000000000000000000000000000000000000000000\n    /* \"#utility.yul\":52:53   */\n  0x00\n    /* \"#utility.yul\":45:133   */\n  mstore\n    /* \"#utility.yul\":152:156   */\n  0x21\n    /* \"#utility.yul\":149:150   */\n  0x04\n    /* \"#utility.yul\":142:157   */\n  mstore\n    /* \"#utility.yul\":176:180   */\n  0x24\n    /* \"#utility.yul\":173:174   */\n  0x00\n    /* \"#utility.yul\":166:181   */\n  revert\n    /* \"contracts/final.sol\":62:1238  contract Marketplace {... */\ntag_7:\n  dataSize(sub_0)\n  dup1\n  dataOffset(sub_0)\n  0x00\n  codecopy\n  0x00\n  return\nstop\n\nsub_0: assembly {\n        /* \"contracts/final.sol\":62:1238  contract Marketplace {... */\n      mstore(0x40, 0x80)\n      jumpi(tag_1, lt(calldatasize, 0x04))\n      shr(0xe0, calldataload(0x00))\n      dup1\n      0x200d2ed2\n      eq\n      tag_2\n      jumpi\n      dup1\n      0x3b7104f2\n      eq\n      tag_3\n      jumpi\n      dup1\n      0x4e69d560\n      eq\n      tag_4\n      jumpi\n      dup1\n      0xb6bef7b3\n      eq\n      tag_5\n      jumpi\n      dup1\n      0xfd3e50a7\n      eq\n      tag_6\n      jumpi\n    tag_1:\n      0x00\n      dup1\n      revert\n        /* \"contracts/final.sol\":191:219  ShippingStatus public status */\n    tag_2:\n      callvalue\n      dup1\n      iszero\n      tag_7\n      jumpi\n      0x00\n      dup1\n      revert\n    tag_7:\n      pop\n      tag_8\n      tag_9\n      jump\t// in\n    tag_8:\n      mload(0x40)\n      tag_10\n      swap2\n      swap1\n      tag_11\n      jump\t// in\n    tag_10:\n      mload(0x40)\n      dup1\n      swap2\n      sub\n      swap1\n      return\n        /* \"contracts/final.sol\":1040:1235  function checkStatus() public onlyCustomer payable returns (ShippingStatus) {... */\n    tag_3:\n      tag_12\n      tag_13\n      jump\t// in\n    tag_12:\n      mload(0x40)\n      tag_14\n      swap2\n      swap1\n      tag_11\n      jump\t// in\n    tag_14:\n      mload(0x40)\n      dup1\n      swap2\n      sub\n      swap1\n      return\n        /* \"contracts/final.sol\":928:1028  function getStatus() public view onlyOwner returns (ShippingStatus) {... */\n    tag_4:\n      callvalue\n      dup1\n      iszero\n      tag_15\n      jumpi\n      0x00\n      dup1\n      revert\n    tag_15:\n      pop\n      tag_16\n      tag_17\n      jump\t// in\n    tag_16:\n      mload(0x40)\n      tag_18\n      swap2\n      swap1\n      tag_11\n      jump\t// in\n    tag_18:\n      mload(0x40)\n      dup1\n      swap2\n      sub\n      swap1\n      return\n        /* \"contracts/final.sol\":667:783  function ship() public onlyOwner {... */\n    tag_5:\n      callvalue\n      dup1\n      iszero\n      tag_19\n      jumpi\n      0x00\n      dup1\n      revert\n    tag_19:\n      pop\n      tag_20\n      tag_21\n      jump\t// in\n    tag_20:\n      stop\n        /* \"contracts/final.sol\":795:916  function deliver() public onlyOwner {... */\n    tag_6:\n      callvalue\n      dup1\n      iszero\n      tag_22\n      jumpi\n      0x00\n      dup1\n      revert\n    tag_22:\n      pop\n      tag_23\n      tag_24\n      jump\t// in\n    tag_23:\n      stop\n        /* \"contracts/final.sol\":191:219  ShippingStatus public status */\n    tag_9:\n      0x00\n      dup1\n      sload\n      swap1\n      0x0100\n      exp\n      swap1\n      div\n      0xff\n      and\n      dup2\n      jump\t// out\n        /* \"contracts/final.sol\":1040:1235  function checkStatus() public onlyCustomer payable returns (ShippingStatus) {... */\n    tag_13:\n        /* \"contracts/final.sol\":1100:1114  ShippingStatus */\n      0x00\n        /* \"contracts/final.sol\":585:590  owner */\n      dup1\n      0x01\n      swap1\n      sload\n      swap1\n      0x0100\n      exp\n      swap1\n      div\n      0xffffffffffffffffffffffffffffffffffffffff\n      and\n        /* \"contracts/final.sol\":571:590  msg.sender != owner */\n      0xffffffffffffffffffffffffffffffffffffffff\n      and\n        /* \"contracts/final.sol\":571:581  msg.sender */\n      caller\n        /* \"contracts/final.sol\":571:590  msg.sender != owner */\n      0xffffffffffffffffffffffffffffffffffffffff\n      and\n      sub\n        /* \"contracts/final.sol\":563:635  require(msg.sender != owner, \"Only the customer can call this function\") */\n      tag_26\n      jumpi\n      mload(0x40)\n      0x08c379a000000000000000000000000000000000000000000000000000000000\n      dup2\n      mstore\n      0x04\n      add\n      tag_27\n      swap1\n      tag_28\n      jump\t// in\n    tag_27:\n      mload(0x40)\n      dup1\n      swap2\n      sub\n      swap1\n      revert\n    tag_26:\n        /* \"contracts/final.sol\":1148:1155  1 ether */\n      0x0de0b6b3a7640000\n        /* \"contracts/final.sol\":1135:1144  msg.value */\n      callvalue\n        /* \"contracts/final.sol\":1135:1155  msg.value >= 1 ether */\n      lt\n      iszero\n        /* \"contracts/final.sol\":1127:1203  require(msg.value >= 1 ether, \"Payment of 1 ether required to check status\") */\n      tag_30\n      jumpi\n      mload(0x40)\n      0x08c379a000000000000000000000000000000000000000000000000000000000\n      dup2\n      mstore\n      0x04\n      add\n      tag_31\n      swap1\n      tag_32\n      jump\t// in\n    tag_31:\n      mload(0x40)\n      dup1\n      swap2\n      sub\n      swap1\n      revert\n    tag_30:\n        /* \"contracts/final.sol\":1221:1227  status */\n      0x00\n      dup1\n      sload\n      swap1\n      0x0100\n      exp\n      swap1\n      div\n      0xff\n      and\n        /* \"contracts/final.sol\":1214:1227  return status */\n      swap1\n      pop\n        /* \"contracts/final.sol\":1040:1235  function checkStatus() public onlyCustomer payable returns (ShippingStatus) {... */\n      swap1\n      jump\t// out\n        /* \"contracts/final.sol\":928:1028  function getStatus() public view onlyOwner returns (ShippingStatus) {... */\n    tag_17:\n        /* \"contracts/final.sol\":980:994  ShippingStatus */\n      0x00\n        /* \"contracts/final.sol\":451:456  owner */\n      dup1\n      0x01\n      swap1\n      sload\n      swap1\n      0x0100\n      exp\n      swap1\n      div\n      0xffffffffffffffffffffffffffffffffffffffff\n      and\n        /* \"contracts/final.sol\":437:456  msg.sender == owner */\n      0xffffffffffffffffffffffffffffffffffffffff\n      and\n        /* \"contracts/final.sol\":437:447  msg.sender */\n      caller\n        /* \"contracts/final.sol\":437:456  msg.sender == owner */\n      0xffffffffffffffffffffffffffffffffffffffff\n      and\n      eq\n        /* \"contracts/final.sol\":429:498  require(msg.sender == owner, \"Only the owner can call this function\") */\n      tag_34\n      jumpi\n      mload(0x40)\n      0x08c379a000000000000000000000000000000000000000000000000000000000\n      dup2\n      mstore\n      0x04\n      add\n      tag_35\n      swap1\n      tag_36\n      jump\t// in\n    tag_35:\n      mload(0x40)\n      dup1\n      swap2\n      sub\n      swap1\n      revert\n    tag_34:\n        /* \"contracts/final.sol\":1014:1020  status */\n      0x00\n      dup1\n      sload\n      swap1\n      0x0100\n      exp\n      swap1\n      div\n      0xff\n      and\n        /* \"contracts/final.sol\":1007:1020  return status */\n      swap1\n      pop\n        /* \"contracts/final.sol\":928:1028  function getStatus() public view onlyOwner returns (ShippingStatus) {... */\n      swap1\n      jump\t// out\n        /* \"contracts/final.sol\":667:783  function ship() public onlyOwner {... */\n    tag_21:\n        /* \"contracts/final.sol\":451:456  owner */\n      0x00\n      0x01\n      swap1\n      sload\n      swap1\n      0x0100\n      exp\n      swap1\n      div\n      0xffffffffffffffffffffffffffffffffffffffff\n      and\n        /* \"contracts/final.sol\":437:456  msg.sender == owner */\n      0xffffffffffffffffffffffffffffffffffffffff\n      and\n        /* \"contracts/final.sol\":437:447  msg.sender */\n      caller\n        /* \"contracts/final.sol\":437:456  msg.sender == owner */\n      0xffffffffffffffffffffffffffffffffffffffff\n      and\n      eq\n        /* \"contracts/final.sol\":429:498  require(msg.sender == owner, \"Only the owner can call this function\") */\n      tag_39\n      jumpi\n      mload(0x40)\n      0x08c379a000000000000000000000000000000000000000000000000000000000\n      dup2\n      mstore\n      0x04\n      add\n      tag_40\n      swap1\n      tag_36\n      jump\t// in\n    tag_40:\n      mload(0x40)\n      dup1\n      swap2\n      sub\n      swap1\n      revert\n    tag_39:\n        /* \"contracts/final.sol\":720:742  ShippingStatus.Shipped */\n      0x01\n        /* \"contracts/final.sol\":711:717  status */\n      0x00\n      dup1\n        /* \"contracts/final.sol\":711:742  status = ShippingStatus.Shipped */\n      0x0100\n      exp\n      dup2\n      sload\n      dup2\n      0xff\n      mul\n      not\n      and\n      swap1\n      dup4\n      0x02\n      dup2\n      gt\n      iszero\n      tag_42\n      jumpi\n      tag_43\n      tag_44\n      jump\t// in\n    tag_43:\n    tag_42:\n      mul\n      or\n      swap1\n      sstore\n      pop\n        /* \"contracts/final.sol\":758:775  MissionComplete() */\n      0x36b3427b9db85e3915108cfe803971ea1ab2908152d7f72b55bf3a001c67a865\n      mload(0x40)\n      mload(0x40)\n      dup1\n      swap2\n      sub\n      swap1\n      log1\n        /* \"contracts/final.sol\":667:783  function ship() public onlyOwner {... */\n      jump\t// out\n        /* \"contracts/final.sol\":795:916  function deliver() public onlyOwner {... */\n    tag_24:\n        /* \"contracts/final.sol\":451:456  owner */\n      0x00\n      0x01\n      swap1\n      sload\n      swap1\n      0x0100\n      exp\n      swap1\n      div\n      0xffffffffffffffffffffffffffffffffffffffff\n      and\n        /* \"contracts/final.sol\":437:456  msg.sender == owner */\n      0xffffffffffffffffffffffffffffffffffffffff\n      and\n        /* \"contracts/final.sol\":437:447  msg.sender */\n      caller\n        /* \"contracts/final.sol\":437:456  msg.sender == owner */\n      0xffffffffffffffffffffffffffffffffffffffff\n      and\n      eq\n        /* \"contracts/final.sol\":429:498  require(msg.sender == owner, \"Only the owner can call this function\") */\n      tag_46\n      jumpi\n      mload(0x40)\n      0x08c379a000000000000000000000000000000000000000000000000000000000\n      dup2\n      mstore\n      0x04\n      add\n      tag_47\n      swap1\n      tag_36\n      jump\t// in\n    tag_47:\n      mload(0x40)\n      dup1\n      swap2\n      sub\n      swap1\n      revert\n    tag_46:\n        /* \"contracts/final.sol\":851:875  ShippingStatus.Delivered */\n      0x02\n        /* \"contracts/final.sol\":842:848  status */\n      0x00\n      dup1\n        /* \"contracts/final.sol\":842:875  status = ShippingStatus.Delivered */\n      0x0100\n      exp\n      dup2\n      sload\n      dup2\n      0xff\n      mul\n      not\n      and\n      swap1\n      dup4\n      0x02\n      dup2\n      gt\n      iszero\n      tag_49\n      jumpi\n      tag_50\n      tag_44\n      jump\t// in\n    tag_50:\n    tag_49:\n      mul\n      or\n      swap1\n      sstore\n      pop\n        /* \"contracts/final.sol\":891:908  MissionComplete() */\n      0x36b3427b9db85e3915108cfe803971ea1ab2908152d7f72b55bf3a001c67a865\n      mload(0x40)\n      mload(0x40)\n      dup1\n      swap2\n      sub\n      swap1\n      log1\n        /* \"contracts/final.sol\":795:916  function deliver() public onlyOwner {... */\n      jump\t// out\n        /* \"#utility.yul\":7:187   */\n    tag_44:\n        /* \"#utility.yul\":55:132   */\n      0x4e487b7100000000000000000000000000000000000000000000000000000000\n        /* \"#utility.yul\":52:53   */\n      0x00\n        /* \"#utility.yul\":45:133   */\n      mstore\n        /* \"#utility.yul\":152:156   */\n      0x21\n        /* \"#utility.yul\":149:150   */\n      0x04\n        /* \"#utility.yul\":142:157   */\n      mstore\n        /* \"#utility.yul\":176:180   */\n      0x24\n        /* \"#utility.yul\":173:174   */\n      0x00\n        /* \"#utility.yul\":166:181   */\n      revert\n        /* \"#utility.yul\":193:314   */\n    tag_51:\n        /* \"#utility.yul\":282:283   */\n      0x03\n        /* \"#utility.yul\":275:280   */\n      dup2\n        /* \"#utility.yul\":272:284   */\n      lt\n        /* \"#utility.yul\":262:308   */\n      tag_65\n      jumpi\n        /* \"#utility.yul\":288:306   */\n      tag_66\n      tag_44\n      jump\t// in\n    tag_66:\n        /* \"#utility.yul\":262:308   */\n    tag_65:\n        /* \"#utility.yul\":193:314   */\n      pop\n      jump\t// out\n        /* \"#utility.yul\":320:463   */\n    tag_52:\n        /* \"#utility.yul\":373:380   */\n      0x00\n        /* \"#utility.yul\":402:407   */\n      dup2\n        /* \"#utility.yul\":391:407   */\n      swap1\n      pop\n        /* \"#utility.yul\":408:457   */\n      tag_68\n        /* \"#utility.yul\":451:456   */\n      dup3\n        /* \"#utility.yul\":408:457   */\n      tag_51\n      jump\t// in\n    tag_68:\n        /* \"#utility.yul\":320:463   */\n      swap2\n      swap1\n      pop\n      jump\t// out\n        /* \"#utility.yul\":469:612   */\n    tag_53:\n        /* \"#utility.yul\":533:542   */\n      0x00\n        /* \"#utility.yul\":566:606   */\n      tag_70\n        /* \"#utility.yul\":600:605   */\n      dup3\n        /* \"#utility.yul\":566:606   */\n      tag_52\n      jump\t// in\n    tag_70:\n        /* \"#utility.yul\":553:606   */\n      swap1\n      pop\n        /* \"#utility.yul\":469:612   */\n      swap2\n      swap1\n      pop\n      jump\t// out\n        /* \"#utility.yul\":618:777   */\n    tag_54:\n        /* \"#utility.yul\":719:770   */\n      tag_72\n        /* \"#utility.yul\":764:769   */\n      dup2\n        /* \"#utility.yul\":719:770   */\n      tag_53\n      jump\t// in\n    tag_72:\n        /* \"#utility.yul\":714:717   */\n      dup3\n        /* \"#utility.yul\":707:771   */\n      mstore\n        /* \"#utility.yul\":618:777   */\n      pop\n      pop\n      jump\t// out\n        /* \"#utility.yul\":783:1033   */\n    tag_11:\n        /* \"#utility.yul\":890:894   */\n      0x00\n        /* \"#utility.yul\":928:930   */\n      0x20\n        /* \"#utility.yul\":917:926   */\n      dup3\n        /* \"#utility.yul\":913:931   */\n      add\n        /* \"#utility.yul\":905:931   */\n      swap1\n      pop\n        /* \"#utility.yul\":941:1026   */\n      tag_74\n        /* \"#utility.yul\":1023:1024   */\n      0x00\n        /* \"#utility.yul\":1012:1021   */\n      dup4\n        /* \"#utility.yul\":1008:1025   */\n      add\n        /* \"#utility.yul\":999:1005   */\n      dup5\n        /* \"#utility.yul\":941:1026   */\n      tag_54\n      jump\t// in\n    tag_74:\n        /* \"#utility.yul\":783:1033   */\n      swap3\n      swap2\n      pop\n      pop\n      jump\t// out\n        /* \"#utility.yul\":1039:1208   */\n    tag_55:\n        /* \"#utility.yul\":1123:1134   */\n      0x00\n        /* \"#utility.yul\":1157:1163   */\n      dup3\n        /* \"#utility.yul\":1152:1155   */\n      dup3\n        /* \"#utility.yul\":1145:1164   */\n      mstore\n        /* \"#utility.yul\":1197:1201   */\n      0x20\n        /* \"#utility.yul\":1192:1195   */\n      dup3\n        /* \"#utility.yul\":1188:1202   */\n      add\n        /* \"#utility.yul\":1173:1202   */\n      swap1\n      pop\n        /* \"#utility.yul\":1039:1208   */\n      swap3\n      swap2\n      pop\n      pop\n      jump\t// out\n        /* \"#utility.yul\":1214:1441   */\n    tag_56:\n        /* \"#utility.yul\":1354:1388   */\n      0x4f6e6c792074686520637573746f6d65722063616e2063616c6c207468697320\n        /* \"#utility.yul\":1350:1351   */\n      0x00\n        /* \"#utility.yul\":1342:1348   */\n      dup3\n        /* \"#utility.yul\":1338:1352   */\n      add\n        /* \"#utility.yul\":1331:1389   */\n      mstore\n        /* \"#utility.yul\":1423:1433   */\n      0x66756e6374696f6e000000000000000000000000000000000000000000000000\n        /* \"#utility.yul\":1418:1420   */\n      0x20\n        /* \"#utility.yul\":1410:1416   */\n      dup3\n        /* \"#utility.yul\":1406:1421   */\n      add\n        /* \"#utility.yul\":1399:1434   */\n      mstore\n        /* \"#utility.yul\":1214:1441   */\n      pop\n      jump\t// out\n        /* \"#utility.yul\":1447:1813   */\n    tag_57:\n        /* \"#utility.yul\":1589:1592   */\n      0x00\n        /* \"#utility.yul\":1610:1677   */\n      tag_78\n        /* \"#utility.yul\":1674:1676   */\n      0x28\n        /* \"#utility.yul\":1669:1672   */\n      dup4\n        /* \"#utility.yul\":1610:1677   */\n      tag_55\n      jump\t// in\n    tag_78:\n        /* \"#utility.yul\":1603:1677   */\n      swap2\n      pop\n        /* \"#utility.yul\":1686:1779   */\n      tag_79\n        /* \"#utility.yul\":1775:1778   */\n      dup3\n        /* \"#utility.yul\":1686:1779   */\n      tag_56\n      jump\t// in\n    tag_79:\n        /* \"#utility.yul\":1804:1806   */\n      0x40\n        /* \"#utility.yul\":1799:1802   */\n      dup3\n        /* \"#utility.yul\":1795:1807   */\n      add\n        /* \"#utility.yul\":1788:1807   */\n      swap1\n      pop\n        /* \"#utility.yul\":1447:1813   */\n      swap2\n      swap1\n      pop\n      jump\t// out\n        /* \"#utility.yul\":1819:2238   */\n    tag_28:\n        /* \"#utility.yul\":1985:1989   */\n      0x00\n        /* \"#utility.yul\":2023:2025   */\n      0x20\n        /* \"#utility.yul\":2012:2021   */\n      dup3\n        /* \"#utility.yul\":2008:2026   */\n      add\n        /* \"#utility.yul\":2000:2026   */\n      swap1\n      pop\n        /* \"#utility.yul\":2072:2081   */\n      dup2\n        /* \"#utility.yul\":2066:2070   */\n      dup2\n        /* \"#utility.yul\":2062:2082   */\n      sub\n        /* \"#utility.yul\":2058:2059   */\n      0x00\n        /* \"#utility.yul\":2047:2056   */\n      dup4\n        /* \"#utility.yul\":2043:2060   */\n      add\n        /* \"#utility.yul\":2036:2083   */\n      mstore\n        /* \"#utility.yul\":2100:2231   */\n      tag_81\n        /* \"#utility.yul\":2226:2230   */\n      dup2\n        /* \"#utility.yul\":2100:2231   */\n      tag_57\n      jump\t// in\n    tag_81:\n        /* \"#utility.yul\":2092:2231   */\n      swap1\n      pop\n        /* \"#utility.yul\":1819:2238   */\n      swap2\n      swap1\n      pop\n      jump\t// out\n        /* \"#utility.yul\":2244:2474   */\n    tag_58:\n        /* \"#utility.yul\":2384:2418   */\n      0x5061796d656e74206f66203120657468657220726571756972656420746f2063\n        /* \"#utility.yul\":2380:2381   */\n      0x00\n        /* \"#utility.yul\":2372:2378   */\n      dup3\n        /* \"#utility.yul\":2368:2382   */\n      add\n        /* \"#utility.yul\":2361:2419   */\n      mstore\n        /* \"#utility.yul\":2453:2466   */\n      0x6865636b20737461747573000000000000000000000000000000000000000000\n        /* \"#utility.yul\":2448:2450   */\n      0x20\n        /* \"#utility.yul\":2440:2446   */\n      dup3\n        /* \"#utility.yul\":2436:2451   */\n      add\n        /* \"#utility.yul\":2429:2467   */\n      mstore\n        /* \"#utility.yul\":2244:2474   */\n      pop\n      jump\t// out\n        /* \"#utility.yul\":2480:2846   */\n    tag_59:\n        /* \"#utility.yul\":2622:2625   */\n      0x00\n        /* \"#utility.yul\":2643:2710   */\n      tag_84\n        /* \"#utility.yul\":2707:2709   */\n      0x2b\n        /* \"#utility.yul\":2702:2705   */\n      dup4\n        /* \"#utility.yul\":2643:2710   */\n      tag_55\n      jump\t// in\n    tag_84:\n        /* \"#utility.yul\":2636:2710   */\n      swap2\n      pop\n        /* \"#utility.yul\":2719:2812   */\n      tag_85\n        /* \"#utility.yul\":2808:2811   */\n      dup3\n        /* \"#utility.yul\":2719:2812   */\n      tag_58\n      jump\t// in\n    tag_85:\n        /* \"#utility.yul\":2837:2839   */\n      0x40\n        /* \"#utility.yul\":2832:2835   */\n      dup3\n        /* \"#utility.yul\":2828:2840   */\n      add\n        /* \"#utility.yul\":2821:2840   */\n      swap1\n      pop\n        /* \"#utility.yul\":2480:2846   */\n      swap2\n      swap1\n      pop\n      jump\t// out\n        /* \"#utility.yul\":2852:3271   */\n    tag_32:\n        /* \"#utility.yul\":3018:3022   */\n      0x00\n        /* \"#utility.yul\":3056:3058   */\n      0x20\n        /* \"#utility.yul\":3045:3054   */\n      dup3\n        /* \"#utility.yul\":3041:3059   */\n      add\n        /* \"#utility.yul\":3033:3059   */\n      swap1\n      pop\n        /* \"#utility.yul\":3105:3114   */\n      dup2\n        /* \"#utility.yul\":3099:3103   */\n      dup2\n        /* \"#utility.yul\":3095:3115   */\n      sub\n        /* \"#utility.yul\":3091:3092   */\n      0x00\n        /* \"#utility.yul\":3080:3089   */\n      dup4\n        /* \"#utility.yul\":3076:3093   */\n      add\n        /* \"#utility.yul\":3069:3116   */\n      mstore\n        /* \"#utility.yul\":3133:3264   */\n      tag_87\n        /* \"#utility.yul\":3259:3263   */\n      dup2\n        /* \"#utility.yul\":3133:3264   */\n      tag_59\n      jump\t// in\n    tag_87:\n        /* \"#utility.yul\":3125:3264   */\n      swap1\n      pop\n        /* \"#utility.yul\":2852:3271   */\n      swap2\n      swap1\n      pop\n      jump\t// out\n        /* \"#utility.yul\":3277:3501   */\n    tag_60:\n        /* \"#utility.yul\":3417:3451   */\n      0x4f6e6c7920746865206f776e65722063616e2063616c6c20746869732066756e\n        /* \"#utility.yul\":3413:3414   */\n      0x00\n        /* \"#utility.yul\":3405:3411   */\n      dup3\n        /* \"#utility.yul\":3401:3415   */\n      add\n        /* \"#utility.yul\":3394:3452   */\n      mstore\n        /* \"#utility.yul\":3486:3493   */\n      0x6374696f6e000000000000000000000000000000000000000000000000000000\n        /* \"#utility.yul\":3481:3483   */\n      0x20\n        /* \"#utility.yul\":3473:3479   */\n      dup3\n        /* \"#utility.yul\":3469:3484   */\n      add\n        /* \"#utility.yul\":3462:3494   */\n      mstore\n        /* \"#utility.yul\":3277:3501   */\n      pop\n      jump\t// out\n        /* \"#utility.yul\":3507:3873   */\n    tag_61:\n        /* \"#utility.yul\":3649:3652   */\n      0x00\n        /* \"#utility.yul\":3670:3737   */\n      tag_90\n        /* \"#utility.yul\":3734:3736   */\n      0x25\n        /* \"#utility.yul\":3729:3732   */\n      dup4\n        /* \"#utility.yul\":3670:3737   */\n      tag_55\n      jump\t// in\n    tag_90:\n        /* \"#utility.yul\":3663:3737   */\n      swap2\n      pop\n        /* \"#utility.yul\":3746:3839   */\n      tag_91\n        /* \"#utility.yul\":3835:3838   */\n      dup3\n        /* \"#utility.yul\":3746:3839   */\n      tag_60\n      jump\t// in\n    tag_91:\n        /* \"#utility.yul\":3864:3866   */\n      0x40\n        /* \"#utility.yul\":3859:3862   */\n      dup3\n        /* \"#utility.yul\":3855:3867   */\n      add\n        /* \"#utility.yul\":3848:3867   */\n      swap1\n      pop\n        /* \"#utility.yul\":3507:3873   */\n      swap2\n      swap1\n      pop\n      jump\t// out\n        /* \"#utility.yul\":3879:4298   */\n    tag_36:\n        /* \"#utility.yul\":4045:4049   */\n      0x00\n        /* \"#utility.yul\":4083:4085   */\n      0x20\n        /* \"#utility.yul\":4072:4081   */\n      dup3\n        /* \"#utility.yul\":4068:4086   */\n      add\n        /* \"#utility.yul\":4060:4086   */\n      swap1\n      pop\n        /* \"#utility.yul\":4132:4141   */\n      dup2\n        /* \"#utility.yul\":4126:4130   */\n      dup2\n        /* \"#utility.yul\":4122:4142   */\n      sub\n        /* \"#utility.yul\":4118:4119   */\n      0x00\n        /* \"#utility.yul\":4107:4116   */\n      dup4\n        /* \"#utility.yul\":4103:4120   */\n      add\n        /* \"#utility.yul\":4096:4143   */\n      mstore\n        /* \"#utility.yul\":4160:4291   */\n      tag_93\n        /* \"#utility.yul\":4286:4290   */\n      dup2\n        /* \"#utility.yul\":4160:4291   */\n      tag_61\n      jump\t// in\n    tag_93:\n        /* \"#utility.yul\":4152:4291   */\n      swap1\n      pop\n        /* \"#utility.yul\":3879:4298   */\n      swap2\n      swap1\n      pop\n      jump\t// out\n\n    auxdata: 0xa2646970667358221220c001fbd66d0aa688e8718fe4dae48e82b8bf0a4e348ce9de73eaa07cb76e85ca64736f6c63430008120033\n}\n",
				"bytecode": {
					"linkReferences": {},
					"object": "608060405234801561001057600080fd5b5060008060006101000a81548160ff0219169083600281111561003657610035610081565b5b021790555033600060016101000a81548173ffffffffffffffffffffffffffffffffffffffff021916908373ffffffffffffffffffffffffffffffffffffffff1602179055506100b0565b7f4e487b7100000000000000000000000000000000000000000000000000000000600052602160045260246000fd5b6106f4806100bf6000396000f3fe60806040526004361061004a5760003560e01c8063200d2ed21461004f5780633b7104f21461007a5780634e69d56014610098578063b6bef7b3146100c3578063fd3e50a7146100da575b600080fd5b34801561005b57600080fd5b506100646100f1565b60405161007191906104dc565b60405180910390f35b610082610102565b60405161008f91906104dc565b60405180910390f35b3480156100a457600080fd5b506100ad6101f1565b6040516100ba91906104dc565b60405180910390f35b3480156100cf57600080fd5b506100d8610295565b005b3480156100e657600080fd5b506100ef61037d565b005b60008054906101000a900460ff1681565b60008060019054906101000a900473ffffffffffffffffffffffffffffffffffffffff1673ffffffffffffffffffffffffffffffffffffffff163373ffffffffffffffffffffffffffffffffffffffff1603610193576040517f08c379a000000000000000000000000000000000000000000000000000000000815260040161018a9061057a565b60405180910390fd5b670de0b6b3a76400003410156101de576040517f08c379a00000000000000000000000000000000000000000000000000000000081526004016101d59061060c565b60405180910390fd5b60008054906101000a900460ff16905090565b60008060019054906101000a900473ffffffffffffffffffffffffffffffffffffffff1673ffffffffffffffffffffffffffffffffffffffff163373ffffffffffffffffffffffffffffffffffffffff1614610282576040517f08c379a00000000000000000000000000000000000000000000000000000000081526004016102799061069e565b60405180910390fd5b60008054906101000a900460ff16905090565b600060019054906101000a900473ffffffffffffffffffffffffffffffffffffffff1673ffffffffffffffffffffffffffffffffffffffff163373ffffffffffffffffffffffffffffffffffffffff1614610325576040517f08c379a000000000000000000000000000000000000000000000000000000000815260040161031c9061069e565b60405180910390fd5b60016000806101000a81548160ff0219169083600281111561034a57610349610465565b5b02179055507f36b3427b9db85e3915108cfe803971ea1ab2908152d7f72b55bf3a001c67a86560405160405180910390a1565b600060019054906101000a900473ffffffffffffffffffffffffffffffffffffffff1673ffffffffffffffffffffffffffffffffffffffff163373ffffffffffffffffffffffffffffffffffffffff161461040d576040517f08c379a00000000000000000000000000000000000000000000000000000000081526004016104049061069e565b60405180910390fd5b60026000806101000a81548160ff0219169083600281111561043257610431610465565b5b02179055507f36b3427b9db85e3915108cfe803971ea1ab2908152d7f72b55bf3a001c67a86560405160405180910390a1565b7f4e487b7100000000000000000000000000000000000000000000000000000000600052602160045260246000fd5b600381106104a5576104a4610465565b5b50565b60008190506104b682610494565b919050565b60006104c6826104a8565b9050919050565b6104d6816104bb565b82525050565b60006020820190506104f160008301846104cd565b92915050565b600082825260208201905092915050565b7f4f6e6c792074686520637573746f6d65722063616e2063616c6c20746869732060008201527f66756e6374696f6e000000000000000000000000000000000000000000000000602082015250565b60006105646028836104f7565b915061056f82610508565b604082019050919050565b6000602082019050818103600083015261059381610557565b9050919050565b7f5061796d656e74206f66203120657468657220726571756972656420746f206360008201527f6865636b20737461747573000000000000000000000000000000000000000000602082015250565b60006105f6602b836104f7565b91506106018261059a565b604082019050919050565b60006020820190508181036000830152610625816105e9565b9050919050565b7f4f6e6c7920746865206f776e65722063616e2063616c6c20746869732066756e60008201527f6374696f6e000000000000000000000000000000000000000000000000000000602082015250565b60006106886025836104f7565b91506106938261062c565b604082019050919050565b600060208201905081810360008301526106b78161067b565b905091905056fea2646970667358221220c001fbd66d0aa688e8718fe4dae48e82b8bf0a4e348ce9de73eaa07cb76e85ca64736f6c63430008120033",
					"opcodes": "PUSH1 0x80 PUSH1 0x40 MSTORE CALLVALUE DUP1 ISZERO PUSH2 0x10 JUMPI PUSH1 0x0 DUP1 REVERT JUMPDEST POP PUSH1 0x0 DUP1 PUSH1 0x0 PUSH2 0x100 EXP DUP2 SLOAD DUP2 PUSH1 0xFF MUL NOT AND SWAP1 DUP4 PUSH1 0x2 DUP2 GT ISZERO PUSH2 0x36 JUMPI PUSH2 0x35 PUSH2 0x81 JUMP JUMPDEST JUMPDEST MUL OR SWAP1 SSTORE POP CALLER PUSH1 0x0 PUSH1 0x1 PUSH2 0x100 EXP DUP2 SLOAD DUP2 PUSH20 0xFFFFFFFFFFFFFFFFFFFFFFFFFFFFFFFFFFFFFFFF MUL NOT AND SWAP1 DUP4 PUSH20 0xFFFFFFFFFFFFFFFFFFFFFFFFFFFFFFFFFFFFFFFF AND MUL OR SWAP1 SSTORE POP PUSH2 0xB0 JUMP JUMPDEST PUSH32 0x4E487B7100000000000000000000000000000000000000000000000000000000 PUSH1 0x0 MSTORE PUSH1 0x21 PUSH1 0x4 MSTORE PUSH1 0x24 PUSH1 0x0 REVERT JUMPDEST PUSH2 0x6F4 DUP1 PUSH2 0xBF PUSH1 0x0 CODECOPY PUSH1 0x0 RETURN INVALID PUSH1 0x80 PUSH1 0x40 MSTORE PUSH1 0x4 CALLDATASIZE LT PUSH2 0x4A JUMPI PUSH1 0x0 CALLDATALOAD PUSH1 0xE0 SHR DUP1 PUSH4 0x200D2ED2 EQ PUSH2 0x4F JUMPI DUP1 PUSH4 0x3B7104F2 EQ PUSH2 0x7A JUMPI DUP1 PUSH4 0x4E69D560 EQ PUSH2 0x98 JUMPI DUP1 PUSH4 0xB6BEF7B3 EQ PUSH2 0xC3 JUMPI DUP1 PUSH4 0xFD3E50A7 EQ PUSH2 0xDA JUMPI JUMPDEST PUSH1 0x0 DUP1 REVERT JUMPDEST CALLVALUE DUP1 ISZERO PUSH2 0x5B JUMPI PUSH1 0x0 DUP1 REVERT JUMPDEST POP PUSH2 0x64 PUSH2 0xF1 JUMP JUMPDEST PUSH1 0x40 MLOAD PUSH2 0x71 SWAP2 SWAP1 PUSH2 0x4DC JUMP JUMPDEST PUSH1 0x40 MLOAD DUP1 SWAP2 SUB SWAP1 RETURN JUMPDEST PUSH2 0x82 PUSH2 0x102 JUMP JUMPDEST PUSH1 0x40 MLOAD PUSH2 0x8F SWAP2 SWAP1 PUSH2 0x4DC JUMP JUMPDEST PUSH1 0x40 MLOAD DUP1 SWAP2 SUB SWAP1 RETURN JUMPDEST CALLVALUE DUP1 ISZERO PUSH2 0xA4 JUMPI PUSH1 0x0 DUP1 REVERT JUMPDEST POP PUSH2 0xAD PUSH2 0x1F1 JUMP JUMPDEST PUSH1 0x40 MLOAD PUSH2 0xBA SWAP2 SWAP1 PUSH2 0x4DC JUMP JUMPDEST PUSH1 0x40 MLOAD DUP1 SWAP2 SUB SWAP1 RETURN JUMPDEST CALLVALUE DUP1 ISZERO PUSH2 0xCF JUMPI PUSH1 0x0 DUP1 REVERT JUMPDEST POP PUSH2 0xD8 PUSH2 0x295 JUMP JUMPDEST STOP JUMPDEST CALLVALUE DUP1 ISZERO PUSH2 0xE6 JUMPI PUSH1 0x0 DUP1 REVERT JUMPDEST POP PUSH2 0xEF PUSH2 0x37D JUMP JUMPDEST STOP JUMPDEST PUSH1 0x0 DUP1 SLOAD SWAP1 PUSH2 0x100 EXP SWAP1 DIV PUSH1 0xFF AND DUP2 JUMP JUMPDEST PUSH1 0x0 DUP1 PUSH1 0x1 SWAP1 SLOAD SWAP1 PUSH2 0x100 EXP SWAP1 DIV PUSH20 0xFFFFFFFFFFFFFFFFFFFFFFFFFFFFFFFFFFFFFFFF AND PUSH20 0xFFFFFFFFFFFFFFFFFFFFFFFFFFFFFFFFFFFFFFFF AND CALLER PUSH20 0xFFFFFFFFFFFFFFFFFFFFFFFFFFFFFFFFFFFFFFFF AND SUB PUSH2 0x193 JUMPI PUSH1 0x40 MLOAD PUSH32 0x8C379A000000000000000000000000000000000000000000000000000000000 DUP2 MSTORE PUSH1 0x4 ADD PUSH2 0x18A SWAP1 PUSH2 0x57A JUMP JUMPDEST PUSH1 0x40 MLOAD DUP1 SWAP2 SUB SWAP1 REVERT JUMPDEST PUSH8 0xDE0B6B3A7640000 CALLVALUE LT ISZERO PUSH2 0x1DE JUMPI PUSH1 0x40 MLOAD PUSH32 0x8C379A000000000000000000000000000000000000000000000000000000000 DUP2 MSTORE PUSH1 0x4 ADD PUSH2 0x1D5 SWAP1 PUSH2 0x60C JUMP JUMPDEST PUSH1 0x40 MLOAD DUP1 SWAP2 SUB SWAP1 REVERT JUMPDEST PUSH1 0x0 DUP1 SLOAD SWAP1 PUSH2 0x100 EXP SWAP1 DIV PUSH1 0xFF AND SWAP1 POP SWAP1 JUMP JUMPDEST PUSH1 0x0 DUP1 PUSH1 0x1 SWAP1 SLOAD SWAP1 PUSH2 0x100 EXP SWAP1 DIV PUSH20 0xFFFFFFFFFFFFFFFFFFFFFFFFFFFFFFFFFFFFFFFF AND PUSH20 0xFFFFFFFFFFFFFFFFFFFFFFFFFFFFFFFFFFFFFFFF AND CALLER PUSH20 0xFFFFFFFFFFFFFFFFFFFFFFFFFFFFFFFFFFFFFFFF AND EQ PUSH2 0x282 JUMPI PUSH1 0x40 MLOAD PUSH32 0x8C379A000000000000000000000000000000000000000000000000000000000 DUP2 MSTORE PUSH1 0x4 ADD PUSH2 0x279 SWAP1 PUSH2 0x69E JUMP JUMPDEST PUSH1 0x40 MLOAD DUP1 SWAP2 SUB SWAP1 REVERT JUMPDEST PUSH1 0x0 DUP1 SLOAD SWAP1 PUSH2 0x100 EXP SWAP1 DIV PUSH1 0xFF AND SWAP1 POP SWAP1 JUMP JUMPDEST PUSH1 0x0 PUSH1 0x1 SWAP1 SLOAD SWAP1 PUSH2 0x100 EXP SWAP1 DIV PUSH20 0xFFFFFFFFFFFFFFFFFFFFFFFFFFFFFFFFFFFFFFFF AND PUSH20 0xFFFFFFFFFFFFFFFFFFFFFFFFFFFFFFFFFFFFFFFF AND CALLER PUSH20 0xFFFFFFFFFFFFFFFFFFFFFFFFFFFFFFFFFFFFFFFF AND EQ PUSH2 0x325 JUMPI PUSH1 0x40 MLOAD PUSH32 0x8C379A000000000000000000000000000000000000000000000000000000000 DUP2 MSTORE PUSH1 0x4 ADD PUSH2 0x31C SWAP1 PUSH2 0x69E JUMP JUMPDEST PUSH1 0x40 MLOAD DUP1 SWAP2 SUB SWAP1 REVERT JUMPDEST PUSH1 0x1 PUSH1 0x0 DUP1 PUSH2 0x100 EXP DUP2 SLOAD DUP2 PUSH1 0xFF MUL NOT AND SWAP1 DUP4 PUSH1 0x2 DUP2 GT ISZERO PUSH2 0x34A JUMPI PUSH2 0x349 PUSH2 0x465 JUMP JUMPDEST JUMPDEST MUL OR SWAP1 SSTORE POP PUSH32 0x36B3427B9DB85E3915108CFE803971EA1AB2908152D7F72B55BF3A001C67A865 PUSH1 0x40 MLOAD PUSH1 0x40 MLOAD DUP1 SWAP2 SUB SWAP1 LOG1 JUMP JUMPDEST PUSH1 0x0 PUSH1 0x1 SWAP1 SLOAD SWAP1 PUSH2 0x100 EXP SWAP1 DIV PUSH20 0xFFFFFFFFFFFFFFFFFFFFFFFFFFFFFFFFFFFFFFFF AND PUSH20 0xFFFFFFFFFFFFFFFFFFFFFFFFFFFFFFFFFFFFFFFF AND CALLER PUSH20 0xFFFFFFFFFFFFFFFFFFFFFFFFFFFFFFFFFFFFFFFF AND EQ PUSH2 0x40D JUMPI PUSH1 0x40 MLOAD PUSH32 0x8C379A000000000000000000000000000000000000000000000000000000000 DUP2 MSTORE PUSH1 0x4 ADD PUSH2 0x404 SWAP1 PUSH2 0x69E JUMP JUMPDEST PUSH1 0x40 MLOAD DUP1 SWAP2 SUB SWAP1 REVERT JUMPDEST PUSH1 0x2 PUSH1 0x0 DUP1 PUSH2 0x100 EXP DUP2 SLOAD DUP2 PUSH1 0xFF MUL NOT AND SWAP1 DUP4 PUSH1 0x2 DUP2 GT ISZERO PUSH2 0x432 JUMPI PUSH2 0x431 PUSH2 0x465 JUMP JUMPDEST JUMPDEST MUL OR SWAP1 SSTORE POP PUSH32 0x36B3427B9DB85E3915108CFE803971EA1AB2908152D7F72B55BF3A001C67A865 PUSH1 0x40 MLOAD PUSH1 0x40 MLOAD DUP1 SWAP2 SUB SWAP1 LOG1 JUMP JUMPDEST PUSH32 0x4E487B7100000000000000000000000000000000000000000000000000000000 PUSH1 0x0 MSTORE PUSH1 0x21 PUSH1 0x4 MSTORE PUSH1 0x24 PUSH1 0x0 REVERT JUMPDEST PUSH1 0x3 DUP2 LT PUSH2 0x4A5 JUMPI PUSH2 0x4A4 PUSH2 0x465 JUMP JUMPDEST JUMPDEST POP JUMP JUMPDEST PUSH1 0x0 DUP2 SWAP1 POP PUSH2 0x4B6 DUP3 PUSH2 0x494 JUMP JUMPDEST SWAP2 SWAP1 POP JUMP JUMPDEST PUSH1 0x0 PUSH2 0x4C6 DUP3 PUSH2 0x4A8 JUMP JUMPDEST SWAP1 POP SWAP2 SWAP1 POP JUMP JUMPDEST PUSH2 0x4D6 DUP2 PUSH2 0x4BB JUMP JUMPDEST DUP3 MSTORE POP POP JUMP JUMPDEST PUSH1 0x0 PUSH1 0x20 DUP3 ADD SWAP1 POP PUSH2 0x4F1 PUSH1 0x0 DUP4 ADD DUP5 PUSH2 0x4CD JUMP JUMPDEST SWAP3 SWAP2 POP POP JUMP JUMPDEST PUSH1 0x0 DUP3 DUP3 MSTORE PUSH1 0x20 DUP3 ADD SWAP1 POP SWAP3 SWAP2 POP POP JUMP JUMPDEST PUSH32 0x4F6E6C792074686520637573746F6D65722063616E2063616C6C207468697320 PUSH1 0x0 DUP3 ADD MSTORE PUSH32 0x66756E6374696F6E000000000000000000000000000000000000000000000000 PUSH1 0x20 DUP3 ADD MSTORE POP JUMP JUMPDEST PUSH1 0x0 PUSH2 0x564 PUSH1 0x28 DUP4 PUSH2 0x4F7 JUMP JUMPDEST SWAP2 POP PUSH2 0x56F DUP3 PUSH2 0x508 JUMP JUMPDEST PUSH1 0x40 DUP3 ADD SWAP1 POP SWAP2 SWAP1 POP JUMP JUMPDEST PUSH1 0x0 PUSH1 0x20 DUP3 ADD SWAP1 POP DUP2 DUP2 SUB PUSH1 0x0 DUP4 ADD MSTORE PUSH2 0x593 DUP2 PUSH2 0x557 JUMP JUMPDEST SWAP1 POP SWAP2 SWAP1 POP JUMP JUMPDEST PUSH32 0x5061796D656E74206F66203120657468657220726571756972656420746F2063 PUSH1 0x0 DUP3 ADD MSTORE PUSH32 0x6865636B20737461747573000000000000000000000000000000000000000000 PUSH1 0x20 DUP3 ADD MSTORE POP JUMP JUMPDEST PUSH1 0x0 PUSH2 0x5F6 PUSH1 0x2B DUP4 PUSH2 0x4F7 JUMP JUMPDEST SWAP2 POP PUSH2 0x601 DUP3 PUSH2 0x59A JUMP JUMPDEST PUSH1 0x40 DUP3 ADD SWAP1 POP SWAP2 SWAP1 POP JUMP JUMPDEST PUSH1 0x0 PUSH1 0x20 DUP3 ADD SWAP1 POP DUP2 DUP2 SUB PUSH1 0x0 DUP4 ADD MSTORE PUSH2 0x625 DUP2 PUSH2 0x5E9 JUMP JUMPDEST SWAP1 POP SWAP2 SWAP1 POP JUMP JUMPDEST PUSH32 0x4F6E6C7920746865206F776E65722063616E2063616C6C20746869732066756E PUSH1 0x0 DUP3 ADD MSTORE PUSH32 0x6374696F6E000000000000000000000000000000000000000000000000000000 PUSH1 0x20 DUP3 ADD MSTORE POP JUMP JUMPDEST PUSH1 0x0 PUSH2 0x688 PUSH1 0x25 DUP4 PUSH2 0x4F7 JUMP JUMPDEST SWAP2 POP PUSH2 0x693 DUP3 PUSH2 0x62C JUMP JUMPDEST PUSH1 0x40 DUP3 ADD SWAP1 POP SWAP2 SWAP1 POP JUMP JUMPDEST PUSH1 0x0 PUSH1 0x20 DUP3 ADD SWAP1 POP DUP2 DUP2 SUB PUSH1 0x0 DUP4 ADD MSTORE PUSH2 0x6B7 DUP2 PUSH2 0x67B JUMP JUMPDEST SWAP1 POP SWAP2 SWAP1 POP JUMP INVALID LOG2 PUSH5 0x6970667358 0x22 SLT KECCAK256 0xC0 ADD 0xFB 0xD6 PUSH14 0xAA688E8718FE4DAE48E82B8BF0A 0x4E CALLVALUE DUP13 0xE9 0xDE PUSH20 0xEAA07CB76E85CA64736F6C634300081200330000 "
				},
				"gasEstimates": {
					"creation": {
						"codeDepositCost": "356000",
						"executionCost": "49008",
						"totalCost": "405008"
					},
					"external": {
						"checkStatus()": "4786",
						"deliver()": "27494",
						"getStatus()": "4807",
						"ship()": "27472",
						"status()": "2535"
					}
				},
				"methodIdentifiers": {
					"checkStatus()": "3b7104f2",
					"deliver()": "fd3e50a7",
					"getStatus()": "4e69d560",
					"ship()": "b6bef7b3",
					"status()": "200d2ed2"
				}
			},
			"storageLayout": {
				"storage": [
					{
						"astId": 8,
						"contract": "contracts/final.sol:Marketplace",
						"label": "status",
						"offset": 0,
						"slot": "0",
						"type": "t_enum(ShippingStatus)5"
					},
					{
						"astId": 12,
						"contract": "contracts/final.sol:Marketplace",
						"label": "owner",
						"offset": 1,
						"slot": "0",
						"type": "t_address"
					}
				],
				"types": {
					"t_address": {
						"encoding": "inplace",
						"label": "address",
						"numberOfBytes": "20"
					},
					"t_enum(ShippingStatus)5": {
						"encoding": "inplace",
						"label": "enum Marketplace.ShippingStatus",
						"numberOfBytes": "1"
					}
				}
			},
			"userdoc": {
				"kind": "user",
				"methods": {},
				"version": 1
			}
		}
	}
}