{
	"contracts/test.sol": {
		"PresenceContract": {
			"abi": [
				{
					"inputs": [],
					"stateMutability": "nonpayable",
					"type": "constructor"
				},
				{
					"inputs": [],
					"name": "checkMyPresence",
					"outputs": [
						{
							"internalType": "bool",
							"name": "",
							"type": "bool"
						}
					],
					"stateMutability": "view",
					"type": "function"
				},
				{
					"inputs": [
						{
							"internalType": "address",
							"name": "studentAddress",
							"type": "address"
						}
					],
					"name": "getStudentSigned",
					"outputs": [
						{
							"internalType": "string",
							"name": "",
							"type": "string"
						}
					],
					"stateMutability": "view",
					"type": "function"
				},
				{
					"inputs": [
						{
							"internalType": "string",
							"name": "firstName",
							"type": "string"
						},
						{
							"internalType": "string",
							"name": "lastName",
							"type": "string"
						},
						{
							"internalType": "string",
							"name": "filiaire",
							"type": "string"
						}
					],
					"name": "studentSign",
					"outputs": [],
					"stateMutability": "nonpayable",
					"type": "function"
				}
			],
			"devdoc": {
				"custom:dev-run-script": "deploy.js",
				"details": "Contract for managing student presence.",
				"kind": "dev",
				"methods": {},
				"version": 1
			},
			"evm": {
				"assembly": "    /* \"contracts/test.sol\":158:1204  contract PresenceContract {... */\n  mstore(0x40, 0x80)\n    /* \"contracts/test.sol\":338:421  constructor() {... */\n  callvalue\n  dup1\n  iszero\n  tag_1\n  jumpi\n  0x00\n  dup1\n  revert\ntag_1:\n  pop\n    /* \"contracts/test.sol\":371:413  0x5B38Da6a701c568545dCfcB03FcB875f56beddC4 */\n  0x5b38da6a701c568545dcfcb03fcb875f56beddc4\n    /* \"contracts/test.sol\":363:368  owner */\n  0x02\n  0x00\n    /* \"contracts/test.sol\":363:413  owner = 0x5B38Da6a701c568545dCfcB03FcB875f56beddC4 */\n  0x0100\n  exp\n  dup2\n  sload\n  dup2\n  0xffffffffffffffffffffffffffffffffffffffff\n  mul\n  not\n  and\n  swap1\n  dup4\n  0xffffffffffffffffffffffffffffffffffffffff\n  and\n  mul\n  or\n  swap1\n  sstore\n  pop\n    /* \"contracts/test.sol\":158:1204  contract PresenceContract {... */\n  dataSize(sub_0)\n  dup1\n  dataOffset(sub_0)\n  0x00\n  codecopy\n  0x00\n  return\nstop\n\nsub_0: assembly {\n        /* \"contracts/test.sol\":158:1204  contract PresenceContract {... */\n      mstore(0x40, 0x80)\n      callvalue\n      dup1\n      iszero\n      tag_1\n      jumpi\n      0x00\n      dup1\n      revert\n    tag_1:\n      pop\n      jumpi(tag_2, lt(calldatasize, 0x04))\n      shr(0xe0, calldataload(0x00))\n      dup1\n      0x2a779c1b\n      eq\n      tag_3\n      jumpi\n      dup1\n      0xa372bc0d\n      eq\n      tag_4\n      jumpi\n      dup1\n      0xbb1af0fb\n      eq\n      tag_5\n      jumpi\n    tag_2:\n      0x00\n      dup1\n      revert\n        /* \"contracts/test.sol\":798:948  function getStudentSigned(address studentAddress) public view onlyOwner returns (string memory) {... */\n    tag_3:\n      tag_6\n      0x04\n      dup1\n      calldatasize\n      sub\n      dup2\n      add\n      swap1\n      tag_7\n      swap2\n      swap1\n      tag_8\n      jump\t// in\n    tag_7:\n      tag_9\n      jump\t// in\n    tag_6:\n      mload(0x40)\n      tag_10\n      swap2\n      swap1\n      tag_11\n      jump\t// in\n    tag_10:\n      mload(0x40)\n      dup1\n      swap2\n      sub\n      swap1\n      return\n        /* \"contracts/test.sol\":433:786  function studentSign(string memory firstName, string memory lastName, string memory filiaire) public {... */\n    tag_4:\n      tag_12\n      0x04\n      dup1\n      calldatasize\n      sub\n      dup2\n      add\n      swap1\n      tag_13\n      swap2\n      swap1\n      tag_14\n      jump\t// in\n    tag_13:\n      tag_15\n      jump\t// in\n    tag_12:\n      stop\n        /* \"contracts/test.sol\":960:1067  function checkMyPresence() public view returns (bool) {... */\n    tag_5:\n      tag_16\n      tag_17\n      jump\t// in\n    tag_16:\n      mload(0x40)\n      tag_18\n      swap2\n      swap1\n      tag_19\n      jump\t// in\n    tag_18:\n      mload(0x40)\n      dup1\n      swap2\n      sub\n      swap1\n      return\n        /* \"contracts/test.sol\":798:948  function getStudentSigned(address studentAddress) public view onlyOwner returns (string memory) {... */\n    tag_9:\n        /* \"contracts/test.sol\":879:892  string memory */\n      0x60\n        /* \"contracts/test.sol\":1133:1138  owner */\n      0x02\n      0x00\n      swap1\n      sload\n      swap1\n      0x0100\n      exp\n      swap1\n      div\n      0xffffffffffffffffffffffffffffffffffffffff\n      and\n        /* \"contracts/test.sol\":1119:1138  msg.sender == owner */\n      0xffffffffffffffffffffffffffffffffffffffff\n      and\n        /* \"contracts/test.sol\":1119:1129  msg.sender */\n      caller\n        /* \"contracts/test.sol\":1119:1138  msg.sender == owner */\n      0xffffffffffffffffffffffffffffffffffffffff\n      and\n      eq\n        /* \"contracts/test.sol\":1111:1181  require(msg.sender == owner, \"Only the owner can call this function.\") */\n      tag_21\n      jumpi\n      mload(0x40)\n      0x08c379a000000000000000000000000000000000000000000000000000000000\n      dup2\n      mstore\n      0x04\n      add\n      tag_22\n      swap1\n      tag_23\n      jump\t// in\n    tag_22:\n      mload(0x40)\n      dup1\n      swap2\n      sub\n      swap1\n      revert\n    tag_21:\n        /* \"contracts/test.sol\":912:924  studentNames */\n      0x01\n        /* \"contracts/test.sol\":912:940  studentNames[studentAddress] */\n      0x00\n        /* \"contracts/test.sol\":925:939  studentAddress */\n      dup4\n        /* \"contracts/test.sol\":912:940  studentNames[studentAddress] */\n      0xffffffffffffffffffffffffffffffffffffffff\n      and\n      0xffffffffffffffffffffffffffffffffffffffff\n      and\n      dup2\n      mstore\n      0x20\n      add\n      swap1\n      dup2\n      mstore\n      0x20\n      add\n      0x00\n      keccak256\n        /* \"contracts/test.sol\":905:940  return studentNames[studentAddress] */\n      dup1\n      sload\n      tag_25\n      swap1\n      tag_26\n      jump\t// in\n    tag_25:\n      dup1\n      0x1f\n      add\n      0x20\n      dup1\n      swap2\n      div\n      mul\n      0x20\n      add\n      mload(0x40)\n      swap1\n      dup2\n      add\n      0x40\n      mstore\n      dup1\n      swap3\n      swap2\n      swap1\n      dup2\n      dup2\n      mstore\n      0x20\n      add\n      dup3\n      dup1\n      sload\n      tag_27\n      swap1\n      tag_26\n      jump\t// in\n    tag_27:\n      dup1\n      iszero\n      tag_28\n      jumpi\n      dup1\n      0x1f\n      lt\n      tag_29\n      jumpi\n      0x0100\n      dup1\n      dup4\n      sload\n      div\n      mul\n      dup4\n      mstore\n      swap2\n      0x20\n      add\n      swap2\n      jump(tag_28)\n    tag_29:\n      dup3\n      add\n      swap2\n      swap1\n      0x00\n      mstore\n      keccak256(0x00, 0x20)\n      swap1\n    tag_30:\n      dup2\n      sload\n      dup2\n      mstore\n      swap1\n      0x01\n      add\n      swap1\n      0x20\n      add\n      dup1\n      dup4\n      gt\n      tag_30\n      jumpi\n      dup3\n      swap1\n      sub\n      0x1f\n      and\n      dup3\n      add\n      swap2\n    tag_28:\n      pop\n      pop\n      pop\n      pop\n      pop\n      swap1\n      pop\n        /* \"contracts/test.sol\":798:948  function getStudentSigned(address studentAddress) public view onlyOwner returns (string memory) {... */\n      swap2\n      swap1\n      pop\n      jump\t// out\n        /* \"contracts/test.sol\":433:786  function studentSign(string memory firstName, string memory lastName, string memory filiaire) public {... */\n    tag_15:\n        /* \"contracts/test.sol\":595:596  0 */\n      0x00\n        /* \"contracts/test.sol\":559:571  studentNames */\n      0x01\n        /* \"contracts/test.sol\":559:583  studentNames[msg.sender] */\n      0x00\n        /* \"contracts/test.sol\":572:582  msg.sender */\n      caller\n        /* \"contracts/test.sol\":559:583  studentNames[msg.sender] */\n      0xffffffffffffffffffffffffffffffffffffffff\n      and\n      0xffffffffffffffffffffffffffffffffffffffff\n      and\n      dup2\n      mstore\n      0x20\n      add\n      swap1\n      dup2\n      mstore\n      0x20\n      add\n      0x00\n      keccak256\n        /* \"contracts/test.sol\":553:591  bytes(studentNames[msg.sender]).length */\n      dup1\n      sload\n      tag_32\n      swap1\n      tag_26\n      jump\t// in\n    tag_32:\n      swap1\n      pop\n        /* \"contracts/test.sol\":553:596  bytes(studentNames[msg.sender]).length == 0 */\n      eq\n        /* \"contracts/test.sol\":545:628  require(bytes(studentNames[msg.sender]).length == 0, \"You have already signed in.\") */\n      tag_33\n      jumpi\n      mload(0x40)\n      0x08c379a000000000000000000000000000000000000000000000000000000000\n      dup2\n      mstore\n      0x04\n      add\n      tag_34\n      swap1\n      tag_35\n      jump\t// in\n    tag_34:\n      mload(0x40)\n      dup1\n      swap2\n      sub\n      swap1\n      revert\n    tag_33:\n        /* \"contracts/test.sol\":692:701  firstName */\n      dup3\n        /* \"contracts/test.sol\":708:716  lastName */\n      dup3\n        /* \"contracts/test.sol\":723:731  filiaire */\n      dup3\n        /* \"contracts/test.sol\":675:732  abi.encodePacked(firstName, ' ', lastName, ' ', filiaire) */\n      add(0x20, mload(0x40))\n      tag_36\n      swap4\n      swap3\n      swap2\n      swap1\n      tag_37\n      jump\t// in\n    tag_36:\n      mload(0x40)\n      0x20\n      dup2\n      dup4\n      sub\n      sub\n      dup2\n      mstore\n      swap1\n      0x40\n      mstore\n        /* \"contracts/test.sol\":641:653  studentNames */\n      0x01\n        /* \"contracts/test.sol\":641:665  studentNames[msg.sender] */\n      0x00\n        /* \"contracts/test.sol\":654:664  msg.sender */\n      caller\n        /* \"contracts/test.sol\":641:665  studentNames[msg.sender] */\n      0xffffffffffffffffffffffffffffffffffffffff\n      and\n      0xffffffffffffffffffffffffffffffffffffffff\n      and\n      dup2\n      mstore\n      0x20\n      add\n      swap1\n      dup2\n      mstore\n      0x20\n      add\n      0x00\n      keccak256\n        /* \"contracts/test.sol\":641:733  studentNames[msg.sender] = string(abi.encodePacked(firstName, ' ', lastName, ' ', filiaire)) */\n      swap1\n      dup2\n      tag_38\n      swap2\n      swap1\n      tag_39\n      jump\t// in\n    tag_38:\n      pop\n        /* \"contracts/test.sol\":774:778  true */\n      0x01\n        /* \"contracts/test.sol\":744:759  studentPresence */\n      0x00\n        /* \"contracts/test.sol\":744:771  studentPresence[msg.sender] */\n      dup1\n        /* \"contracts/test.sol\":760:770  msg.sender */\n      caller\n        /* \"contracts/test.sol\":744:771  studentPresence[msg.sender] */\n      0xffffffffffffffffffffffffffffffffffffffff\n      and\n      0xffffffffffffffffffffffffffffffffffffffff\n      and\n      dup2\n      mstore\n      0x20\n      add\n      swap1\n      dup2\n      mstore\n      0x20\n      add\n      0x00\n      keccak256\n      0x00\n        /* \"contracts/test.sol\":744:778  studentPresence[msg.sender] = true */\n      0x0100\n      exp\n      dup2\n      sload\n      dup2\n      0xff\n      mul\n      not\n      and\n      swap1\n      dup4\n      iszero\n      iszero\n      mul\n      or\n      swap1\n      sstore\n      pop\n        /* \"contracts/test.sol\":433:786  function studentSign(string memory firstName, string memory lastName, string memory filiaire) public {... */\n      pop\n      pop\n      pop\n      jump\t// out\n        /* \"contracts/test.sol\":960:1067  function checkMyPresence() public view returns (bool) {... */\n    tag_17:\n        /* \"contracts/test.sol\":1008:1012  bool */\n      0x00\n        /* \"contracts/test.sol\":1032:1047  studentPresence */\n      dup1\n        /* \"contracts/test.sol\":1032:1059  studentPresence[msg.sender] */\n      0x00\n        /* \"contracts/test.sol\":1048:1058  msg.sender */\n      caller\n        /* \"contracts/test.sol\":1032:1059  studentPresence[msg.sender] */\n      0xffffffffffffffffffffffffffffffffffffffff\n      and\n      0xffffffffffffffffffffffffffffffffffffffff\n      and\n      dup2\n      mstore\n      0x20\n      add\n      swap1\n      dup2\n      mstore\n      0x20\n      add\n      0x00\n      keccak256\n      0x00\n      swap1\n      sload\n      swap1\n      0x0100\n      exp\n      swap1\n      div\n      0xff\n      and\n        /* \"contracts/test.sol\":1025:1059  return studentPresence[msg.sender] */\n      swap1\n      pop\n        /* \"contracts/test.sol\":960:1067  function checkMyPresence() public view returns (bool) {... */\n      swap1\n      jump\t// out\n        /* \"#utility.yul\":7:82   */\n    tag_41:\n        /* \"#utility.yul\":40:46   */\n      0x00\n        /* \"#utility.yul\":73:75   */\n      0x40\n        /* \"#utility.yul\":67:76   */\n      mload\n        /* \"#utility.yul\":57:76   */\n      swap1\n      pop\n        /* \"#utility.yul\":7:82   */\n      swap1\n      jump\t// out\n        /* \"#utility.yul\":88:205   */\n    tag_42:\n        /* \"#utility.yul\":197:198   */\n      0x00\n        /* \"#utility.yul\":194:195   */\n      dup1\n        /* \"#utility.yul\":187:199   */\n      revert\n        /* \"#utility.yul\":211:328   */\n    tag_43:\n        /* \"#utility.yul\":320:321   */\n      0x00\n        /* \"#utility.yul\":317:318   */\n      dup1\n        /* \"#utility.yul\":310:322   */\n      revert\n        /* \"#utility.yul\":334:460   */\n    tag_44:\n        /* \"#utility.yul\":371:378   */\n      0x00\n        /* \"#utility.yul\":411:453   */\n      0xffffffffffffffffffffffffffffffffffffffff\n        /* \"#utility.yul\":404:409   */\n      dup3\n        /* \"#utility.yul\":400:454   */\n      and\n        /* \"#utility.yul\":389:454   */\n      swap1\n      pop\n        /* \"#utility.yul\":334:460   */\n      swap2\n      swap1\n      pop\n      jump\t// out\n        /* \"#utility.yul\":466:562   */\n    tag_45:\n        /* \"#utility.yul\":503:510   */\n      0x00\n        /* \"#utility.yul\":532:556   */\n      tag_95\n        /* \"#utility.yul\":550:555   */\n      dup3\n        /* \"#utility.yul\":532:556   */\n      tag_44\n      jump\t// in\n    tag_95:\n        /* \"#utility.yul\":521:556   */\n      swap1\n      pop\n        /* \"#utility.yul\":466:562   */\n      swap2\n      swap1\n      pop\n      jump\t// out\n        /* \"#utility.yul\":568:690   */\n    tag_46:\n        /* \"#utility.yul\":641:665   */\n      tag_97\n        /* \"#utility.yul\":659:664   */\n      dup2\n        /* \"#utility.yul\":641:665   */\n      tag_45\n      jump\t// in\n    tag_97:\n        /* \"#utility.yul\":634:639   */\n      dup2\n        /* \"#utility.yul\":631:666   */\n      eq\n        /* \"#utility.yul\":621:684   */\n      tag_98\n      jumpi\n        /* \"#utility.yul\":680:681   */\n      0x00\n        /* \"#utility.yul\":677:678   */\n      dup1\n        /* \"#utility.yul\":670:682   */\n      revert\n        /* \"#utility.yul\":621:684   */\n    tag_98:\n        /* \"#utility.yul\":568:690   */\n      pop\n      jump\t// out\n        /* \"#utility.yul\":696:835   */\n    tag_47:\n        /* \"#utility.yul\":742:747   */\n      0x00\n        /* \"#utility.yul\":780:786   */\n      dup2\n        /* \"#utility.yul\":767:787   */\n      calldataload\n        /* \"#utility.yul\":758:787   */\n      swap1\n      pop\n        /* \"#utility.yul\":796:829   */\n      tag_100\n        /* \"#utility.yul\":823:828   */\n      dup2\n        /* \"#utility.yul\":796:829   */\n      tag_46\n      jump\t// in\n    tag_100:\n        /* \"#utility.yul\":696:835   */\n      swap3\n      swap2\n      pop\n      pop\n      jump\t// out\n        /* \"#utility.yul\":841:1170   */\n    tag_8:\n        /* \"#utility.yul\":900:906   */\n      0x00\n        /* \"#utility.yul\":949:951   */\n      0x20\n        /* \"#utility.yul\":937:946   */\n      dup3\n        /* \"#utility.yul\":928:935   */\n      dup5\n        /* \"#utility.yul\":924:947   */\n      sub\n        /* \"#utility.yul\":920:952   */\n      slt\n        /* \"#utility.yul\":917:1036   */\n      iszero\n      tag_102\n      jumpi\n        /* \"#utility.yul\":955:1034   */\n      tag_103\n      tag_42\n      jump\t// in\n    tag_103:\n        /* \"#utility.yul\":917:1036   */\n    tag_102:\n        /* \"#utility.yul\":1075:1076   */\n      0x00\n        /* \"#utility.yul\":1100:1153   */\n      tag_104\n        /* \"#utility.yul\":1145:1152   */\n      dup5\n        /* \"#utility.yul\":1136:1142   */\n      dup3\n        /* \"#utility.yul\":1125:1134   */\n      dup6\n        /* \"#utility.yul\":1121:1143   */\n      add\n        /* \"#utility.yul\":1100:1153   */\n      tag_47\n      jump\t// in\n    tag_104:\n        /* \"#utility.yul\":1090:1153   */\n      swap2\n      pop\n        /* \"#utility.yul\":1046:1163   */\n      pop\n        /* \"#utility.yul\":841:1170   */\n      swap3\n      swap2\n      pop\n      pop\n      jump\t// out\n        /* \"#utility.yul\":1176:1275   */\n    tag_48:\n        /* \"#utility.yul\":1228:1234   */\n      0x00\n        /* \"#utility.yul\":1262:1267   */\n      dup2\n        /* \"#utility.yul\":1256:1268   */\n      mload\n        /* \"#utility.yul\":1246:1268   */\n      swap1\n      pop\n        /* \"#utility.yul\":1176:1275   */\n      swap2\n      swap1\n      pop\n      jump\t// out\n        /* \"#utility.yul\":1281:1450   */\n    tag_49:\n        /* \"#utility.yul\":1365:1376   */\n      0x00\n        /* \"#utility.yul\":1399:1405   */\n      dup3\n        /* \"#utility.yul\":1394:1397   */\n      dup3\n        /* \"#utility.yul\":1387:1406   */\n      mstore\n        /* \"#utility.yul\":1439:1443   */\n      0x20\n        /* \"#utility.yul\":1434:1437   */\n      dup3\n        /* \"#utility.yul\":1430:1444   */\n      add\n        /* \"#utility.yul\":1415:1444   */\n      swap1\n      pop\n        /* \"#utility.yul\":1281:1450   */\n      swap3\n      swap2\n      pop\n      pop\n      jump\t// out\n        /* \"#utility.yul\":1456:1702   */\n    tag_50:\n        /* \"#utility.yul\":1537:1538   */\n      0x00\n        /* \"#utility.yul\":1547:1660   */\n    tag_108:\n        /* \"#utility.yul\":1561:1567   */\n      dup4\n        /* \"#utility.yul\":1558:1559   */\n      dup2\n        /* \"#utility.yul\":1555:1568   */\n      lt\n        /* \"#utility.yul\":1547:1660   */\n      iszero\n      tag_110\n      jumpi\n        /* \"#utility.yul\":1646:1647   */\n      dup1\n        /* \"#utility.yul\":1641:1644   */\n      dup3\n        /* \"#utility.yul\":1637:1648   */\n      add\n        /* \"#utility.yul\":1631:1649   */\n      mload\n        /* \"#utility.yul\":1627:1628   */\n      dup2\n        /* \"#utility.yul\":1622:1625   */\n      dup5\n        /* \"#utility.yul\":1618:1629   */\n      add\n        /* \"#utility.yul\":1611:1650   */\n      mstore\n        /* \"#utility.yul\":1583:1585   */\n      0x20\n        /* \"#utility.yul\":1580:1581   */\n      dup2\n        /* \"#utility.yul\":1576:1586   */\n      add\n        /* \"#utility.yul\":1571:1586   */\n      swap1\n      pop\n        /* \"#utility.yul\":1547:1660   */\n      jump(tag_108)\n    tag_110:\n        /* \"#utility.yul\":1694:1695   */\n      0x00\n        /* \"#utility.yul\":1685:1691   */\n      dup5\n        /* \"#utility.yul\":1680:1683   */\n      dup5\n        /* \"#utility.yul\":1676:1692   */\n      add\n        /* \"#utility.yul\":1669:1696   */\n      mstore\n        /* \"#utility.yul\":1518:1702   */\n      pop\n        /* \"#utility.yul\":1456:1702   */\n      pop\n      pop\n      pop\n      jump\t// out\n        /* \"#utility.yul\":1708:1810   */\n    tag_51:\n        /* \"#utility.yul\":1749:1755   */\n      0x00\n        /* \"#utility.yul\":1800:1802   */\n      0x1f\n        /* \"#utility.yul\":1796:1803   */\n      not\n        /* \"#utility.yul\":1791:1793   */\n      0x1f\n        /* \"#utility.yul\":1784:1789   */\n      dup4\n        /* \"#utility.yul\":1780:1794   */\n      add\n        /* \"#utility.yul\":1776:1804   */\n      and\n        /* \"#utility.yul\":1766:1804   */\n      swap1\n      pop\n        /* \"#utility.yul\":1708:1810   */\n      swap2\n      swap1\n      pop\n      jump\t// out\n        /* \"#utility.yul\":1816:2193   */\n    tag_52:\n        /* \"#utility.yul\":1904:1907   */\n      0x00\n        /* \"#utility.yul\":1932:1971   */\n      tag_113\n        /* \"#utility.yul\":1965:1970   */\n      dup3\n        /* \"#utility.yul\":1932:1971   */\n      tag_48\n      jump\t// in\n    tag_113:\n        /* \"#utility.yul\":1987:2058   */\n      tag_114\n        /* \"#utility.yul\":2051:2057   */\n      dup2\n        /* \"#utility.yul\":2046:2049   */\n      dup6\n        /* \"#utility.yul\":1987:2058   */\n      tag_49\n      jump\t// in\n    tag_114:\n        /* \"#utility.yul\":1980:2058   */\n      swap4\n      pop\n        /* \"#utility.yul\":2067:2132   */\n      tag_115\n        /* \"#utility.yul\":2125:2131   */\n      dup2\n        /* \"#utility.yul\":2120:2123   */\n      dup6\n        /* \"#utility.yul\":2113:2117   */\n      0x20\n        /* \"#utility.yul\":2106:2111   */\n      dup7\n        /* \"#utility.yul\":2102:2118   */\n      add\n        /* \"#utility.yul\":2067:2132   */\n      tag_50\n      jump\t// in\n    tag_115:\n        /* \"#utility.yul\":2157:2186   */\n      tag_116\n        /* \"#utility.yul\":2179:2185   */\n      dup2\n        /* \"#utility.yul\":2157:2186   */\n      tag_51\n      jump\t// in\n    tag_116:\n        /* \"#utility.yul\":2152:2155   */\n      dup5\n        /* \"#utility.yul\":2148:2187   */\n      add\n        /* \"#utility.yul\":2141:2187   */\n      swap2\n      pop\n        /* \"#utility.yul\":1908:2193   */\n      pop\n        /* \"#utility.yul\":1816:2193   */\n      swap3\n      swap2\n      pop\n      pop\n      jump\t// out\n        /* \"#utility.yul\":2199:2512   */\n    tag_11:\n        /* \"#utility.yul\":2312:2316   */\n      0x00\n        /* \"#utility.yul\":2350:2352   */\n      0x20\n        /* \"#utility.yul\":2339:2348   */\n      dup3\n        /* \"#utility.yul\":2335:2353   */\n      add\n        /* \"#utility.yul\":2327:2353   */\n      swap1\n      pop\n        /* \"#utility.yul\":2399:2408   */\n      dup2\n        /* \"#utility.yul\":2393:2397   */\n      dup2\n        /* \"#utility.yul\":2389:2409   */\n      sub\n        /* \"#utility.yul\":2385:2386   */\n      0x00\n        /* \"#utility.yul\":2374:2383   */\n      dup4\n        /* \"#utility.yul\":2370:2387   */\n      add\n        /* \"#utility.yul\":2363:2410   */\n      mstore\n        /* \"#utility.yul\":2427:2505   */\n      tag_118\n        /* \"#utility.yul\":2500:2504   */\n      dup2\n        /* \"#utility.yul\":2491:2497   */\n      dup5\n        /* \"#utility.yul\":2427:2505   */\n      tag_52\n      jump\t// in\n    tag_118:\n        /* \"#utility.yul\":2419:2505   */\n      swap1\n      pop\n        /* \"#utility.yul\":2199:2512   */\n      swap3\n      swap2\n      pop\n      pop\n      jump\t// out\n        /* \"#utility.yul\":2518:2635   */\n    tag_53:\n        /* \"#utility.yul\":2627:2628   */\n      0x00\n        /* \"#utility.yul\":2624:2625   */\n      dup1\n        /* \"#utility.yul\":2617:2629   */\n      revert\n        /* \"#utility.yul\":2641:2758   */\n    tag_54:\n        /* \"#utility.yul\":2750:2751   */\n      0x00\n        /* \"#utility.yul\":2747:2748   */\n      dup1\n        /* \"#utility.yul\":2740:2752   */\n      revert\n        /* \"#utility.yul\":2764:2944   */\n    tag_55:\n        /* \"#utility.yul\":2812:2889   */\n      0x4e487b7100000000000000000000000000000000000000000000000000000000\n        /* \"#utility.yul\":2809:2810   */\n      0x00\n        /* \"#utility.yul\":2802:2890   */\n      mstore\n        /* \"#utility.yul\":2909:2913   */\n      0x41\n        /* \"#utility.yul\":2906:2907   */\n      0x04\n        /* \"#utility.yul\":2899:2914   */\n      mstore\n        /* \"#utility.yul\":2933:2937   */\n      0x24\n        /* \"#utility.yul\":2930:2931   */\n      0x00\n        /* \"#utility.yul\":2923:2938   */\n      revert\n        /* \"#utility.yul\":2950:3231   */\n    tag_56:\n        /* \"#utility.yul\":3033:3060   */\n      tag_123\n        /* \"#utility.yul\":3055:3059   */\n      dup3\n        /* \"#utility.yul\":3033:3060   */\n      tag_51\n      jump\t// in\n    tag_123:\n        /* \"#utility.yul\":3025:3031   */\n      dup2\n        /* \"#utility.yul\":3021:3061   */\n      add\n        /* \"#utility.yul\":3163:3169   */\n      dup2\n        /* \"#utility.yul\":3151:3161   */\n      dup2\n        /* \"#utility.yul\":3148:3170   */\n      lt\n        /* \"#utility.yul\":3127:3145   */\n      0xffffffffffffffff\n        /* \"#utility.yul\":3115:3125   */\n      dup3\n        /* \"#utility.yul\":3112:3146   */\n      gt\n        /* \"#utility.yul\":3109:3171   */\n      or\n        /* \"#utility.yul\":3106:3194   */\n      iszero\n      tag_124\n      jumpi\n        /* \"#utility.yul\":3174:3192   */\n      tag_125\n      tag_55\n      jump\t// in\n    tag_125:\n        /* \"#utility.yul\":3106:3194   */\n    tag_124:\n        /* \"#utility.yul\":3214:3224   */\n      dup1\n        /* \"#utility.yul\":3210:3212   */\n      0x40\n        /* \"#utility.yul\":3203:3225   */\n      mstore\n        /* \"#utility.yul\":2993:3231   */\n      pop\n        /* \"#utility.yul\":2950:3231   */\n      pop\n      pop\n      jump\t// out\n        /* \"#utility.yul\":3237:3366   */\n    tag_57:\n        /* \"#utility.yul\":3271:3277   */\n      0x00\n        /* \"#utility.yul\":3298:3318   */\n      tag_127\n      tag_41\n      jump\t// in\n    tag_127:\n        /* \"#utility.yul\":3288:3318   */\n      swap1\n      pop\n        /* \"#utility.yul\":3327:3360   */\n      tag_128\n        /* \"#utility.yul\":3355:3359   */\n      dup3\n        /* \"#utility.yul\":3347:3353   */\n      dup3\n        /* \"#utility.yul\":3327:3360   */\n      tag_56\n      jump\t// in\n    tag_128:\n        /* \"#utility.yul\":3237:3366   */\n      swap2\n      swap1\n      pop\n      jump\t// out\n        /* \"#utility.yul\":3372:3680   */\n    tag_58:\n        /* \"#utility.yul\":3434:3438   */\n      0x00\n        /* \"#utility.yul\":3524:3542   */\n      0xffffffffffffffff\n        /* \"#utility.yul\":3516:3522   */\n      dup3\n        /* \"#utility.yul\":3513:3543   */\n      gt\n        /* \"#utility.yul\":3510:3566   */\n      iszero\n      tag_130\n      jumpi\n        /* \"#utility.yul\":3546:3564   */\n      tag_131\n      tag_55\n      jump\t// in\n    tag_131:\n        /* \"#utility.yul\":3510:3566   */\n    tag_130:\n        /* \"#utility.yul\":3584:3613   */\n      tag_132\n        /* \"#utility.yul\":3606:3612   */\n      dup3\n        /* \"#utility.yul\":3584:3613   */\n      tag_51\n      jump\t// in\n    tag_132:\n        /* \"#utility.yul\":3576:3613   */\n      swap1\n      pop\n        /* \"#utility.yul\":3668:3672   */\n      0x20\n        /* \"#utility.yul\":3662:3666   */\n      dup2\n        /* \"#utility.yul\":3658:3673   */\n      add\n        /* \"#utility.yul\":3650:3673   */\n      swap1\n      pop\n        /* \"#utility.yul\":3372:3680   */\n      swap2\n      swap1\n      pop\n      jump\t// out\n        /* \"#utility.yul\":3686:3832   */\n    tag_59:\n        /* \"#utility.yul\":3783:3789   */\n      dup3\n        /* \"#utility.yul\":3778:3781   */\n      dup2\n        /* \"#utility.yul\":3773:3776   */\n      dup4\n        /* \"#utility.yul\":3760:3790   */\n      calldatacopy\n        /* \"#utility.yul\":3824:3825   */\n      0x00\n        /* \"#utility.yul\":3815:3821   */\n      dup4\n        /* \"#utility.yul\":3810:3813   */\n      dup4\n        /* \"#utility.yul\":3806:3822   */\n      add\n        /* \"#utility.yul\":3799:3826   */\n      mstore\n        /* \"#utility.yul\":3686:3832   */\n      pop\n      pop\n      pop\n      jump\t// out\n        /* \"#utility.yul\":3838:4263   */\n    tag_60:\n        /* \"#utility.yul\":3916:3921   */\n      0x00\n        /* \"#utility.yul\":3941:4007   */\n      tag_135\n        /* \"#utility.yul\":3957:4006   */\n      tag_136\n        /* \"#utility.yul\":3999:4005   */\n      dup5\n        /* \"#utility.yul\":3957:4006   */\n      tag_58\n      jump\t// in\n    tag_136:\n        /* \"#utility.yul\":3941:4007   */\n      tag_57\n      jump\t// in\n    tag_135:\n        /* \"#utility.yul\":3932:4007   */\n      swap1\n      pop\n        /* \"#utility.yul\":4030:4036   */\n      dup3\n        /* \"#utility.yul\":4023:4028   */\n      dup2\n        /* \"#utility.yul\":4016:4037   */\n      mstore\n        /* \"#utility.yul\":4068:4072   */\n      0x20\n        /* \"#utility.yul\":4061:4066   */\n      dup2\n        /* \"#utility.yul\":4057:4073   */\n      add\n        /* \"#utility.yul\":4106:4109   */\n      dup5\n        /* \"#utility.yul\":4097:4103   */\n      dup5\n        /* \"#utility.yul\":4092:4095   */\n      dup5\n        /* \"#utility.yul\":4088:4104   */\n      add\n        /* \"#utility.yul\":4085:4110   */\n      gt\n        /* \"#utility.yul\":4082:4194   */\n      iszero\n      tag_137\n      jumpi\n        /* \"#utility.yul\":4113:4192   */\n      tag_138\n      tag_54\n      jump\t// in\n    tag_138:\n        /* \"#utility.yul\":4082:4194   */\n    tag_137:\n        /* \"#utility.yul\":4203:4257   */\n      tag_139\n        /* \"#utility.yul\":4250:4256   */\n      dup5\n        /* \"#utility.yul\":4245:4248   */\n      dup3\n        /* \"#utility.yul\":4240:4243   */\n      dup6\n        /* \"#utility.yul\":4203:4257   */\n      tag_59\n      jump\t// in\n    tag_139:\n        /* \"#utility.yul\":3922:4263   */\n      pop\n        /* \"#utility.yul\":3838:4263   */\n      swap4\n      swap3\n      pop\n      pop\n      pop\n      jump\t// out\n        /* \"#utility.yul\":4283:4623   */\n    tag_61:\n        /* \"#utility.yul\":4339:4344   */\n      0x00\n        /* \"#utility.yul\":4388:4391   */\n      dup3\n        /* \"#utility.yul\":4381:4385   */\n      0x1f\n        /* \"#utility.yul\":4373:4379   */\n      dup4\n        /* \"#utility.yul\":4369:4386   */\n      add\n        /* \"#utility.yul\":4365:4392   */\n      slt\n        /* \"#utility.yul\":4355:4477   */\n      tag_141\n      jumpi\n        /* \"#utility.yul\":4396:4475   */\n      tag_142\n      tag_53\n      jump\t// in\n    tag_142:\n        /* \"#utility.yul\":4355:4477   */\n    tag_141:\n        /* \"#utility.yul\":4513:4519   */\n      dup2\n        /* \"#utility.yul\":4500:4520   */\n      calldataload\n        /* \"#utility.yul\":4538:4617   */\n      tag_143\n        /* \"#utility.yul\":4613:4616   */\n      dup5\n        /* \"#utility.yul\":4605:4611   */\n      dup3\n        /* \"#utility.yul\":4598:4602   */\n      0x20\n        /* \"#utility.yul\":4590:4596   */\n      dup7\n        /* \"#utility.yul\":4586:4603   */\n      add\n        /* \"#utility.yul\":4538:4617   */\n      tag_60\n      jump\t// in\n    tag_143:\n        /* \"#utility.yul\":4529:4617   */\n      swap2\n      pop\n        /* \"#utility.yul\":4345:4623   */\n      pop\n        /* \"#utility.yul\":4283:4623   */\n      swap3\n      swap2\n      pop\n      pop\n      jump\t// out\n        /* \"#utility.yul\":4629:5788   */\n    tag_14:\n        /* \"#utility.yul\":4736:4742   */\n      0x00\n        /* \"#utility.yul\":4744:4750   */\n      dup1\n        /* \"#utility.yul\":4752:4758   */\n      0x00\n        /* \"#utility.yul\":4801:4803   */\n      0x60\n        /* \"#utility.yul\":4789:4798   */\n      dup5\n        /* \"#utility.yul\":4780:4787   */\n      dup7\n        /* \"#utility.yul\":4776:4799   */\n      sub\n        /* \"#utility.yul\":4772:4804   */\n      slt\n        /* \"#utility.yul\":4769:4888   */\n      iszero\n      tag_145\n      jumpi\n        /* \"#utility.yul\":4807:4886   */\n      tag_146\n      tag_42\n      jump\t// in\n    tag_146:\n        /* \"#utility.yul\":4769:4888   */\n    tag_145:\n        /* \"#utility.yul\":4955:4956   */\n      0x00\n        /* \"#utility.yul\":4944:4953   */\n      dup5\n        /* \"#utility.yul\":4940:4957   */\n      add\n        /* \"#utility.yul\":4927:4958   */\n      calldataload\n        /* \"#utility.yul\":4985:5003   */\n      0xffffffffffffffff\n        /* \"#utility.yul\":4977:4983   */\n      dup2\n        /* \"#utility.yul\":4974:5004   */\n      gt\n        /* \"#utility.yul\":4971:5088   */\n      iszero\n      tag_147\n      jumpi\n        /* \"#utility.yul\":5007:5086   */\n      tag_148\n      tag_43\n      jump\t// in\n    tag_148:\n        /* \"#utility.yul\":4971:5088   */\n    tag_147:\n        /* \"#utility.yul\":5112:5175   */\n      tag_149\n        /* \"#utility.yul\":5167:5174   */\n      dup7\n        /* \"#utility.yul\":5158:5164   */\n      dup3\n        /* \"#utility.yul\":5147:5156   */\n      dup8\n        /* \"#utility.yul\":5143:5165   */\n      add\n        /* \"#utility.yul\":5112:5175   */\n      tag_61\n      jump\t// in\n    tag_149:\n        /* \"#utility.yul\":5102:5175   */\n      swap4\n      pop\n        /* \"#utility.yul\":4898:5185   */\n      pop\n        /* \"#utility.yul\":5252:5254   */\n      0x20\n        /* \"#utility.yul\":5241:5250   */\n      dup5\n        /* \"#utility.yul\":5237:5255   */\n      add\n        /* \"#utility.yul\":5224:5256   */\n      calldataload\n        /* \"#utility.yul\":5283:5301   */\n      0xffffffffffffffff\n        /* \"#utility.yul\":5275:5281   */\n      dup2\n        /* \"#utility.yul\":5272:5302   */\n      gt\n        /* \"#utility.yul\":5269:5386   */\n      iszero\n      tag_150\n      jumpi\n        /* \"#utility.yul\":5305:5384   */\n      tag_151\n      tag_43\n      jump\t// in\n    tag_151:\n        /* \"#utility.yul\":5269:5386   */\n    tag_150:\n        /* \"#utility.yul\":5410:5473   */\n      tag_152\n        /* \"#utility.yul\":5465:5472   */\n      dup7\n        /* \"#utility.yul\":5456:5462   */\n      dup3\n        /* \"#utility.yul\":5445:5454   */\n      dup8\n        /* \"#utility.yul\":5441:5463   */\n      add\n        /* \"#utility.yul\":5410:5473   */\n      tag_61\n      jump\t// in\n    tag_152:\n        /* \"#utility.yul\":5400:5473   */\n      swap3\n      pop\n        /* \"#utility.yul\":5195:5483   */\n      pop\n        /* \"#utility.yul\":5550:5552   */\n      0x40\n        /* \"#utility.yul\":5539:5548   */\n      dup5\n        /* \"#utility.yul\":5535:5553   */\n      add\n        /* \"#utility.yul\":5522:5554   */\n      calldataload\n        /* \"#utility.yul\":5581:5599   */\n      0xffffffffffffffff\n        /* \"#utility.yul\":5573:5579   */\n      dup2\n        /* \"#utility.yul\":5570:5600   */\n      gt\n        /* \"#utility.yul\":5567:5684   */\n      iszero\n      tag_153\n      jumpi\n        /* \"#utility.yul\":5603:5682   */\n      tag_154\n      tag_43\n      jump\t// in\n    tag_154:\n        /* \"#utility.yul\":5567:5684   */\n    tag_153:\n        /* \"#utility.yul\":5708:5771   */\n      tag_155\n        /* \"#utility.yul\":5763:5770   */\n      dup7\n        /* \"#utility.yul\":5754:5760   */\n      dup3\n        /* \"#utility.yul\":5743:5752   */\n      dup8\n        /* \"#utility.yul\":5739:5761   */\n      add\n        /* \"#utility.yul\":5708:5771   */\n      tag_61\n      jump\t// in\n    tag_155:\n        /* \"#utility.yul\":5698:5771   */\n      swap2\n      pop\n        /* \"#utility.yul\":5493:5781   */\n      pop\n        /* \"#utility.yul\":4629:5788   */\n      swap3\n      pop\n      swap3\n      pop\n      swap3\n      jump\t// out\n        /* \"#utility.yul\":5794:5884   */\n    tag_62:\n        /* \"#utility.yul\":5828:5835   */\n      0x00\n        /* \"#utility.yul\":5871:5876   */\n      dup2\n        /* \"#utility.yul\":5864:5877   */\n      iszero\n        /* \"#utility.yul\":5857:5878   */\n      iszero\n        /* \"#utility.yul\":5846:5878   */\n      swap1\n      pop\n        /* \"#utility.yul\":5794:5884   */\n      swap2\n      swap1\n      pop\n      jump\t// out\n        /* \"#utility.yul\":5890:5999   */\n    tag_63:\n        /* \"#utility.yul\":5971:5992   */\n      tag_158\n        /* \"#utility.yul\":5986:5991   */\n      dup2\n        /* \"#utility.yul\":5971:5992   */\n      tag_62\n      jump\t// in\n    tag_158:\n        /* \"#utility.yul\":5966:5969   */\n      dup3\n        /* \"#utility.yul\":5959:5993   */\n      mstore\n        /* \"#utility.yul\":5890:5999   */\n      pop\n      pop\n      jump\t// out\n        /* \"#utility.yul\":6005:6215   */\n    tag_19:\n        /* \"#utility.yul\":6092:6096   */\n      0x00\n        /* \"#utility.yul\":6130:6132   */\n      0x20\n        /* \"#utility.yul\":6119:6128   */\n      dup3\n        /* \"#utility.yul\":6115:6133   */\n      add\n        /* \"#utility.yul\":6107:6133   */\n      swap1\n      pop\n        /* \"#utility.yul\":6143:6208   */\n      tag_160\n        /* \"#utility.yul\":6205:6206   */\n      0x00\n        /* \"#utility.yul\":6194:6203   */\n      dup4\n        /* \"#utility.yul\":6190:6207   */\n      add\n        /* \"#utility.yul\":6181:6187   */\n      dup5\n        /* \"#utility.yul\":6143:6208   */\n      tag_63\n      jump\t// in\n    tag_160:\n        /* \"#utility.yul\":6005:6215   */\n      swap3\n      swap2\n      pop\n      pop\n      jump\t// out\n        /* \"#utility.yul\":6221:6446   */\n    tag_64:\n        /* \"#utility.yul\":6361:6395   */\n      0x4f6e6c7920746865206f776e65722063616e2063616c6c20746869732066756e\n        /* \"#utility.yul\":6357:6358   */\n      0x00\n        /* \"#utility.yul\":6349:6355   */\n      dup3\n        /* \"#utility.yul\":6345:6359   */\n      add\n        /* \"#utility.yul\":6338:6396   */\n      mstore\n        /* \"#utility.yul\":6430:6438   */\n      0x6374696f6e2e0000000000000000000000000000000000000000000000000000\n        /* \"#utility.yul\":6425:6427   */\n      0x20\n        /* \"#utility.yul\":6417:6423   */\n      dup3\n        /* \"#utility.yul\":6413:6428   */\n      add\n        /* \"#utility.yul\":6406:6439   */\n      mstore\n        /* \"#utility.yul\":6221:6446   */\n      pop\n      jump\t// out\n        /* \"#utility.yul\":6452:6818   */\n    tag_65:\n        /* \"#utility.yul\":6594:6597   */\n      0x00\n        /* \"#utility.yul\":6615:6682   */\n      tag_163\n        /* \"#utility.yul\":6679:6681   */\n      0x26\n        /* \"#utility.yul\":6674:6677   */\n      dup4\n        /* \"#utility.yul\":6615:6682   */\n      tag_49\n      jump\t// in\n    tag_163:\n        /* \"#utility.yul\":6608:6682   */\n      swap2\n      pop\n        /* \"#utility.yul\":6691:6784   */\n      tag_164\n        /* \"#utility.yul\":6780:6783   */\n      dup3\n        /* \"#utility.yul\":6691:6784   */\n      tag_64\n      jump\t// in\n    tag_164:\n        /* \"#utility.yul\":6809:6811   */\n      0x40\n        /* \"#utility.yul\":6804:6807   */\n      dup3\n        /* \"#utility.yul\":6800:6812   */\n      add\n        /* \"#utility.yul\":6793:6812   */\n      swap1\n      pop\n        /* \"#utility.yul\":6452:6818   */\n      swap2\n      swap1\n      pop\n      jump\t// out\n        /* \"#utility.yul\":6824:7243   */\n    tag_23:\n        /* \"#utility.yul\":6990:6994   */\n      0x00\n        /* \"#utility.yul\":7028:7030   */\n      0x20\n        /* \"#utility.yul\":7017:7026   */\n      dup3\n        /* \"#utility.yul\":7013:7031   */\n      add\n        /* \"#utility.yul\":7005:7031   */\n      swap1\n      pop\n        /* \"#utility.yul\":7077:7086   */\n      dup2\n        /* \"#utility.yul\":7071:7075   */\n      dup2\n        /* \"#utility.yul\":7067:7087   */\n      sub\n        /* \"#utility.yul\":7063:7064   */\n      0x00\n        /* \"#utility.yul\":7052:7061   */\n      dup4\n        /* \"#utility.yul\":7048:7065   */\n      add\n        /* \"#utility.yul\":7041:7088   */\n      mstore\n        /* \"#utility.yul\":7105:7236   */\n      tag_166\n        /* \"#utility.yul\":7231:7235   */\n      dup2\n        /* \"#utility.yul\":7105:7236   */\n      tag_65\n      jump\t// in\n    tag_166:\n        /* \"#utility.yul\":7097:7236   */\n      swap1\n      pop\n        /* \"#utility.yul\":6824:7243   */\n      swap2\n      swap1\n      pop\n      jump\t// out\n        /* \"#utility.yul\":7249:7429   */\n    tag_66:\n        /* \"#utility.yul\":7297:7374   */\n      0x4e487b7100000000000000000000000000000000000000000000000000000000\n        /* \"#utility.yul\":7294:7295   */\n      0x00\n        /* \"#utility.yul\":7287:7375   */\n      mstore\n        /* \"#utility.yul\":7394:7398   */\n      0x22\n        /* \"#utility.yul\":7391:7392   */\n      0x04\n        /* \"#utility.yul\":7384:7399   */\n      mstore\n        /* \"#utility.yul\":7418:7422   */\n      0x24\n        /* \"#utility.yul\":7415:7416   */\n      0x00\n        /* \"#utility.yul\":7408:7423   */\n      revert\n        /* \"#utility.yul\":7435:7755   */\n    tag_26:\n        /* \"#utility.yul\":7479:7485   */\n      0x00\n        /* \"#utility.yul\":7516:7517   */\n      0x02\n        /* \"#utility.yul\":7510:7514   */\n      dup3\n        /* \"#utility.yul\":7506:7518   */\n      div\n        /* \"#utility.yul\":7496:7518   */\n      swap1\n      pop\n        /* \"#utility.yul\":7563:7564   */\n      0x01\n        /* \"#utility.yul\":7557:7561   */\n      dup3\n        /* \"#utility.yul\":7553:7565   */\n      and\n        /* \"#utility.yul\":7584:7602   */\n      dup1\n        /* \"#utility.yul\":7574:7655   */\n      tag_169\n      jumpi\n        /* \"#utility.yul\":7640:7644   */\n      0x7f\n        /* \"#utility.yul\":7632:7638   */\n      dup3\n        /* \"#utility.yul\":7628:7645   */\n      and\n        /* \"#utility.yul\":7618:7645   */\n      swap2\n      pop\n        /* \"#utility.yul\":7574:7655   */\n    tag_169:\n        /* \"#utility.yul\":7702:7704   */\n      0x20\n        /* \"#utility.yul\":7694:7700   */\n      dup3\n        /* \"#utility.yul\":7691:7705   */\n      lt\n        /* \"#utility.yul\":7671:7689   */\n      dup2\n        /* \"#utility.yul\":7668:7706   */\n      sub\n        /* \"#utility.yul\":7665:7749   */\n      tag_170\n      jumpi\n        /* \"#utility.yul\":7721:7739   */\n      tag_171\n      tag_66\n      jump\t// in\n    tag_171:\n        /* \"#utility.yul\":7665:7749   */\n    tag_170:\n        /* \"#utility.yul\":7486:7755   */\n      pop\n        /* \"#utility.yul\":7435:7755   */\n      swap2\n      swap1\n      pop\n      jump\t// out\n        /* \"#utility.yul\":7761:7938   */\n    tag_67:\n        /* \"#utility.yul\":7901:7930   */\n      0x596f75206861766520616c7265616479207369676e656420696e2e0000000000\n        /* \"#utility.yul\":7897:7898   */\n      0x00\n        /* \"#utility.yul\":7889:7895   */\n      dup3\n        /* \"#utility.yul\":7885:7899   */\n      add\n        /* \"#utility.yul\":7878:7931   */\n      mstore\n        /* \"#utility.yul\":7761:7938   */\n      pop\n      jump\t// out\n        /* \"#utility.yul\":7944:8310   */\n    tag_68:\n        /* \"#utility.yul\":8086:8089   */\n      0x00\n        /* \"#utility.yul\":8107:8174   */\n      tag_174\n        /* \"#utility.yul\":8171:8173   */\n      0x1b\n        /* \"#utility.yul\":8166:8169   */\n      dup4\n        /* \"#utility.yul\":8107:8174   */\n      tag_49\n      jump\t// in\n    tag_174:\n        /* \"#utility.yul\":8100:8174   */\n      swap2\n      pop\n        /* \"#utility.yul\":8183:8276   */\n      tag_175\n        /* \"#utility.yul\":8272:8275   */\n      dup3\n        /* \"#utility.yul\":8183:8276   */\n      tag_67\n      jump\t// in\n    tag_175:\n        /* \"#utility.yul\":8301:8303   */\n      0x20\n        /* \"#utility.yul\":8296:8299   */\n      dup3\n        /* \"#utility.yul\":8292:8304   */\n      add\n        /* \"#utility.yul\":8285:8304   */\n      swap1\n      pop\n        /* \"#utility.yul\":7944:8310   */\n      swap2\n      swap1\n      pop\n      jump\t// out\n        /* \"#utility.yul\":8316:8735   */\n    tag_35:\n        /* \"#utility.yul\":8482:8486   */\n      0x00\n        /* \"#utility.yul\":8520:8522   */\n      0x20\n        /* \"#utility.yul\":8509:8518   */\n      dup3\n        /* \"#utility.yul\":8505:8523   */\n      add\n        /* \"#utility.yul\":8497:8523   */\n      swap1\n      pop\n        /* \"#utility.yul\":8569:8578   */\n      dup2\n        /* \"#utility.yul\":8563:8567   */\n      dup2\n        /* \"#utility.yul\":8559:8579   */\n      sub\n        /* \"#utility.yul\":8555:8556   */\n      0x00\n        /* \"#utility.yul\":8544:8553   */\n      dup4\n        /* \"#utility.yul\":8540:8557   */\n      add\n        /* \"#utility.yul\":8533:8580   */\n      mstore\n        /* \"#utility.yul\":8597:8728   */\n      tag_177\n        /* \"#utility.yul\":8723:8727   */\n      dup2\n        /* \"#utility.yul\":8597:8728   */\n      tag_68\n      jump\t// in\n    tag_177:\n        /* \"#utility.yul\":8589:8728   */\n      swap1\n      pop\n        /* \"#utility.yul\":8316:8735   */\n      swap2\n      swap1\n      pop\n      jump\t// out\n        /* \"#utility.yul\":8741:8889   */\n    tag_69:\n        /* \"#utility.yul\":8843:8854   */\n      0x00\n        /* \"#utility.yul\":8880:8883   */\n      dup2\n        /* \"#utility.yul\":8865:8883   */\n      swap1\n      pop\n        /* \"#utility.yul\":8741:8889   */\n      swap3\n      swap2\n      pop\n      pop\n      jump\t// out\n        /* \"#utility.yul\":8895:9285   */\n    tag_70:\n        /* \"#utility.yul\":9001:9004   */\n      0x00\n        /* \"#utility.yul\":9029:9068   */\n      tag_180\n        /* \"#utility.yul\":9062:9067   */\n      dup3\n        /* \"#utility.yul\":9029:9068   */\n      tag_48\n      jump\t// in\n    tag_180:\n        /* \"#utility.yul\":9084:9173   */\n      tag_181\n        /* \"#utility.yul\":9166:9172   */\n      dup2\n        /* \"#utility.yul\":9161:9164   */\n      dup6\n        /* \"#utility.yul\":9084:9173   */\n      tag_69\n      jump\t// in\n    tag_181:\n        /* \"#utility.yul\":9077:9173   */\n      swap4\n      pop\n        /* \"#utility.yul\":9182:9247   */\n      tag_182\n        /* \"#utility.yul\":9240:9246   */\n      dup2\n        /* \"#utility.yul\":9235:9238   */\n      dup6\n        /* \"#utility.yul\":9228:9232   */\n      0x20\n        /* \"#utility.yul\":9221:9226   */\n      dup7\n        /* \"#utility.yul\":9217:9233   */\n      add\n        /* \"#utility.yul\":9182:9247   */\n      tag_50\n      jump\t// in\n    tag_182:\n        /* \"#utility.yul\":9272:9278   */\n      dup1\n        /* \"#utility.yul\":9267:9270   */\n      dup5\n        /* \"#utility.yul\":9263:9279   */\n      add\n        /* \"#utility.yul\":9256:9279   */\n      swap2\n      pop\n        /* \"#utility.yul\":9005:9285   */\n      pop\n        /* \"#utility.yul\":8895:9285   */\n      swap3\n      swap2\n      pop\n      pop\n      jump\t// out\n        /* \"#utility.yul\":9291:9442   */\n    tag_71:\n        /* \"#utility.yul\":9431:9434   */\n      0x2000000000000000000000000000000000000000000000000000000000000000\n        /* \"#utility.yul\":9427:9428   */\n      0x00\n        /* \"#utility.yul\":9419:9425   */\n      dup3\n        /* \"#utility.yul\":9415:9429   */\n      add\n        /* \"#utility.yul\":9408:9435   */\n      mstore\n        /* \"#utility.yul\":9291:9442   */\n      pop\n      jump\t// out\n        /* \"#utility.yul\":9448:9848   */\n    tag_72:\n        /* \"#utility.yul\":9608:9611   */\n      0x00\n        /* \"#utility.yul\":9629:9713   */\n      tag_185\n        /* \"#utility.yul\":9711:9712   */\n      0x01\n        /* \"#utility.yul\":9706:9709   */\n      dup4\n        /* \"#utility.yul\":9629:9713   */\n      tag_69\n      jump\t// in\n    tag_185:\n        /* \"#utility.yul\":9622:9713   */\n      swap2\n      pop\n        /* \"#utility.yul\":9722:9815   */\n      tag_186\n        /* \"#utility.yul\":9811:9814   */\n      dup3\n        /* \"#utility.yul\":9722:9815   */\n      tag_71\n      jump\t// in\n    tag_186:\n        /* \"#utility.yul\":9840:9841   */\n      0x01\n        /* \"#utility.yul\":9835:9838   */\n      dup3\n        /* \"#utility.yul\":9831:9842   */\n      add\n        /* \"#utility.yul\":9824:9842   */\n      swap1\n      pop\n        /* \"#utility.yul\":9448:9848   */\n      swap2\n      swap1\n      pop\n      jump\t// out\n        /* \"#utility.yul\":9854:10981   */\n    tag_37:\n        /* \"#utility.yul\":10284:10287   */\n      0x00\n        /* \"#utility.yul\":10306:10401   */\n      tag_188\n        /* \"#utility.yul\":10397:10400   */\n      dup3\n        /* \"#utility.yul\":10388:10394   */\n      dup7\n        /* \"#utility.yul\":10306:10401   */\n      tag_70\n      jump\t// in\n    tag_188:\n        /* \"#utility.yul\":10299:10401   */\n      swap2\n      pop\n        /* \"#utility.yul\":10418:10566   */\n      tag_189\n        /* \"#utility.yul\":10562:10565   */\n      dup3\n        /* \"#utility.yul\":10418:10566   */\n      tag_72\n      jump\t// in\n    tag_189:\n        /* \"#utility.yul\":10411:10566   */\n      swap2\n      pop\n        /* \"#utility.yul\":10583:10678   */\n      tag_190\n        /* \"#utility.yul\":10674:10677   */\n      dup3\n        /* \"#utility.yul\":10665:10671   */\n      dup6\n        /* \"#utility.yul\":10583:10678   */\n      tag_70\n      jump\t// in\n    tag_190:\n        /* \"#utility.yul\":10576:10678   */\n      swap2\n      pop\n        /* \"#utility.yul\":10695:10843   */\n      tag_191\n        /* \"#utility.yul\":10839:10842   */\n      dup3\n        /* \"#utility.yul\":10695:10843   */\n      tag_72\n      jump\t// in\n    tag_191:\n        /* \"#utility.yul\":10688:10843   */\n      swap2\n      pop\n        /* \"#utility.yul\":10860:10955   */\n      tag_192\n        /* \"#utility.yul\":10951:10954   */\n      dup3\n        /* \"#utility.yul\":10942:10948   */\n      dup5\n        /* \"#utility.yul\":10860:10955   */\n      tag_70\n      jump\t// in\n    tag_192:\n        /* \"#utility.yul\":10853:10955   */\n      swap2\n      pop\n        /* \"#utility.yul\":10972:10975   */\n      dup2\n        /* \"#utility.yul\":10965:10975   */\n      swap1\n      pop\n        /* \"#utility.yul\":9854:10981   */\n      swap5\n      swap4\n      pop\n      pop\n      pop\n      pop\n      jump\t// out\n        /* \"#utility.yul\":10987:11128   */\n    tag_73:\n        /* \"#utility.yul\":11036:11040   */\n      0x00\n        /* \"#utility.yul\":11059:11062   */\n      dup2\n        /* \"#utility.yul\":11051:11062   */\n      swap1\n      pop\n        /* \"#utility.yul\":11082:11085   */\n      dup2\n        /* \"#utility.yul\":11079:11080   */\n      0x00\n        /* \"#utility.yul\":11072:11086   */\n      mstore\n        /* \"#utility.yul\":11116:11120   */\n      0x20\n        /* \"#utility.yul\":11113:11114   */\n      0x00\n        /* \"#utility.yul\":11103:11121   */\n      keccak256\n        /* \"#utility.yul\":11095:11121   */\n      swap1\n      pop\n        /* \"#utility.yul\":10987:11128   */\n      swap2\n      swap1\n      pop\n      jump\t// out\n        /* \"#utility.yul\":11134:11227   */\n    tag_74:\n        /* \"#utility.yul\":11171:11177   */\n      0x00\n        /* \"#utility.yul\":11218:11220   */\n      0x20\n        /* \"#utility.yul\":11213:11215   */\n      0x1f\n        /* \"#utility.yul\":11206:11211   */\n      dup4\n        /* \"#utility.yul\":11202:11216   */\n      add\n        /* \"#utility.yul\":11198:11221   */\n      div\n        /* \"#utility.yul\":11188:11221   */\n      swap1\n      pop\n        /* \"#utility.yul\":11134:11227   */\n      swap2\n      swap1\n      pop\n      jump\t// out\n        /* \"#utility.yul\":11233:11340   */\n    tag_75:\n        /* \"#utility.yul\":11277:11285   */\n      0x00\n        /* \"#utility.yul\":11327:11332   */\n      dup3\n        /* \"#utility.yul\":11321:11325   */\n      dup3\n        /* \"#utility.yul\":11317:11333   */\n      shl\n        /* \"#utility.yul\":11296:11333   */\n      swap1\n      pop\n        /* \"#utility.yul\":11233:11340   */\n      swap3\n      swap2\n      pop\n      pop\n      jump\t// out\n        /* \"#utility.yul\":11346:11739   */\n    tag_76:\n        /* \"#utility.yul\":11415:11421   */\n      0x00\n        /* \"#utility.yul\":11465:11466   */\n      0x08\n        /* \"#utility.yul\":11453:11463   */\n      dup4\n        /* \"#utility.yul\":11449:11467   */\n      mul\n        /* \"#utility.yul\":11488:11585   */\n      tag_197\n        /* \"#utility.yul\":11518:11584   */\n      0xffffffffffffffffffffffffffffffffffffffffffffffffffffffffffffffff\n        /* \"#utility.yul\":11507:11516   */\n      dup3\n        /* \"#utility.yul\":11488:11585   */\n      tag_75\n      jump\t// in\n    tag_197:\n        /* \"#utility.yul\":11606:11645   */\n      tag_198\n        /* \"#utility.yul\":11636:11644   */\n      dup7\n        /* \"#utility.yul\":11625:11634   */\n      dup4\n        /* \"#utility.yul\":11606:11645   */\n      tag_75\n      jump\t// in\n    tag_198:\n        /* \"#utility.yul\":11594:11645   */\n      swap6\n      pop\n        /* \"#utility.yul\":11678:11682   */\n      dup1\n        /* \"#utility.yul\":11674:11683   */\n      not\n        /* \"#utility.yul\":11667:11672   */\n      dup5\n        /* \"#utility.yul\":11663:11684   */\n      and\n        /* \"#utility.yul\":11654:11684   */\n      swap4\n      pop\n        /* \"#utility.yul\":11727:11731   */\n      dup1\n        /* \"#utility.yul\":11717:11725   */\n      dup7\n        /* \"#utility.yul\":11713:11732   */\n      and\n        /* \"#utility.yul\":11706:11711   */\n      dup5\n        /* \"#utility.yul\":11703:11733   */\n      or\n        /* \"#utility.yul\":11693:11733   */\n      swap3\n      pop\n        /* \"#utility.yul\":11422:11739   */\n      pop\n      pop\n        /* \"#utility.yul\":11346:11739   */\n      swap4\n      swap3\n      pop\n      pop\n      pop\n      jump\t// out\n        /* \"#utility.yul\":11745:11822   */\n    tag_77:\n        /* \"#utility.yul\":11782:11789   */\n      0x00\n        /* \"#utility.yul\":11811:11816   */\n      dup2\n        /* \"#utility.yul\":11800:11816   */\n      swap1\n      pop\n        /* \"#utility.yul\":11745:11822   */\n      swap2\n      swap1\n      pop\n      jump\t// out\n        /* \"#utility.yul\":11828:11888   */\n    tag_78:\n        /* \"#utility.yul\":11856:11859   */\n      0x00\n        /* \"#utility.yul\":11877:11882   */\n      dup2\n        /* \"#utility.yul\":11870:11882   */\n      swap1\n      pop\n        /* \"#utility.yul\":11828:11888   */\n      swap2\n      swap1\n      pop\n      jump\t// out\n        /* \"#utility.yul\":11894:12036   */\n    tag_79:\n        /* \"#utility.yul\":11944:11953   */\n      0x00\n        /* \"#utility.yul\":11977:12030   */\n      tag_202\n        /* \"#utility.yul\":11995:12029   */\n      tag_203\n        /* \"#utility.yul\":12004:12028   */\n      tag_204\n        /* \"#utility.yul\":12022:12027   */\n      dup5\n        /* \"#utility.yul\":12004:12028   */\n      tag_77\n      jump\t// in\n    tag_204:\n        /* \"#utility.yul\":11995:12029   */\n      tag_78\n      jump\t// in\n    tag_203:\n        /* \"#utility.yul\":11977:12030   */\n      tag_77\n      jump\t// in\n    tag_202:\n        /* \"#utility.yul\":11964:12030   */\n      swap1\n      pop\n        /* \"#utility.yul\":11894:12036   */\n      swap2\n      swap1\n      pop\n      jump\t// out\n        /* \"#utility.yul\":12042:12117   */\n    tag_80:\n        /* \"#utility.yul\":12085:12088   */\n      0x00\n        /* \"#utility.yul\":12106:12111   */\n      dup2\n        /* \"#utility.yul\":12099:12111   */\n      swap1\n      pop\n        /* \"#utility.yul\":12042:12117   */\n      swap2\n      swap1\n      pop\n      jump\t// out\n        /* \"#utility.yul\":12123:12392   */\n    tag_81:\n        /* \"#utility.yul\":12233:12272   */\n      tag_207\n        /* \"#utility.yul\":12264:12271   */\n      dup4\n        /* \"#utility.yul\":12233:12272   */\n      tag_79\n      jump\t// in\n    tag_207:\n        /* \"#utility.yul\":12294:12385   */\n      tag_208\n        /* \"#utility.yul\":12343:12384   */\n      tag_209\n        /* \"#utility.yul\":12367:12383   */\n      dup3\n        /* \"#utility.yul\":12343:12384   */\n      tag_80\n      jump\t// in\n    tag_209:\n        /* \"#utility.yul\":12335:12341   */\n      dup5\n        /* \"#utility.yul\":12328:12332   */\n      dup5\n        /* \"#utility.yul\":12322:12333   */\n      sload\n        /* \"#utility.yul\":12294:12385   */\n      tag_76\n      jump\t// in\n    tag_208:\n        /* \"#utility.yul\":12288:12292   */\n      dup3\n        /* \"#utility.yul\":12281:12386   */\n      sstore\n        /* \"#utility.yul\":12199:12392   */\n      pop\n        /* \"#utility.yul\":12123:12392   */\n      pop\n      pop\n      pop\n      jump\t// out\n        /* \"#utility.yul\":12398:12471   */\n    tag_82:\n        /* \"#utility.yul\":12443:12446   */\n      0x00\n        /* \"#utility.yul\":12398:12471   */\n      swap1\n      jump\t// out\n        /* \"#utility.yul\":12477:12666   */\n    tag_83:\n        /* \"#utility.yul\":12554:12586   */\n      tag_212\n      tag_82\n      jump\t// in\n    tag_212:\n        /* \"#utility.yul\":12595:12660   */\n      tag_213\n        /* \"#utility.yul\":12653:12659   */\n      dup2\n        /* \"#utility.yul\":12645:12651   */\n      dup5\n        /* \"#utility.yul\":12639:12643   */\n      dup5\n        /* \"#utility.yul\":12595:12660   */\n      tag_81\n      jump\t// in\n    tag_213:\n        /* \"#utility.yul\":12530:12666   */\n      pop\n        /* \"#utility.yul\":12477:12666   */\n      pop\n      pop\n      jump\t// out\n        /* \"#utility.yul\":12672:12858   */\n    tag_84:\n        /* \"#utility.yul\":12732:12852   */\n    tag_215:\n        /* \"#utility.yul\":12749:12752   */\n      dup2\n        /* \"#utility.yul\":12742:12747   */\n      dup2\n        /* \"#utility.yul\":12739:12753   */\n      lt\n        /* \"#utility.yul\":12732:12852   */\n      iszero\n      tag_217\n      jumpi\n        /* \"#utility.yul\":12803:12842   */\n      tag_218\n        /* \"#utility.yul\":12840:12841   */\n      0x00\n        /* \"#utility.yul\":12833:12838   */\n      dup3\n        /* \"#utility.yul\":12803:12842   */\n      tag_83\n      jump\t// in\n    tag_218:\n        /* \"#utility.yul\":12776:12777   */\n      0x01\n        /* \"#utility.yul\":12769:12774   */\n      dup2\n        /* \"#utility.yul\":12765:12778   */\n      add\n        /* \"#utility.yul\":12756:12778   */\n      swap1\n      pop\n        /* \"#utility.yul\":12732:12852   */\n      jump(tag_215)\n    tag_217:\n        /* \"#utility.yul\":12672:12858   */\n      pop\n      pop\n      jump\t// out\n        /* \"#utility.yul\":12864:13407   */\n    tag_85:\n        /* \"#utility.yul\":12965:12967   */\n      0x1f\n        /* \"#utility.yul\":12960:12963   */\n      dup3\n        /* \"#utility.yul\":12957:12968   */\n      gt\n        /* \"#utility.yul\":12954:13400   */\n      iszero\n      tag_220\n      jumpi\n        /* \"#utility.yul\":12999:13037   */\n      tag_221\n        /* \"#utility.yul\":13031:13036   */\n      dup2\n        /* \"#utility.yul\":12999:13037   */\n      tag_73\n      jump\t// in\n    tag_221:\n        /* \"#utility.yul\":13083:13112   */\n      tag_222\n        /* \"#utility.yul\":13101:13111   */\n      dup5\n        /* \"#utility.yul\":13083:13112   */\n      tag_74\n      jump\t// in\n    tag_222:\n        /* \"#utility.yul\":13073:13081   */\n      dup2\n        /* \"#utility.yul\":13069:13113   */\n      add\n        /* \"#utility.yul\":13266:13268   */\n      0x20\n        /* \"#utility.yul\":13254:13264   */\n      dup6\n        /* \"#utility.yul\":13251:13269   */\n      lt\n        /* \"#utility.yul\":13248:13297   */\n      iszero\n      tag_223\n      jumpi\n        /* \"#utility.yul\":13287:13295   */\n      dup2\n        /* \"#utility.yul\":13272:13295   */\n      swap1\n      pop\n        /* \"#utility.yul\":13248:13297   */\n    tag_223:\n        /* \"#utility.yul\":13310:13390   */\n      tag_224\n        /* \"#utility.yul\":13366:13388   */\n      tag_225\n        /* \"#utility.yul\":13384:13387   */\n      dup6\n        /* \"#utility.yul\":13366:13388   */\n      tag_74\n      jump\t// in\n    tag_225:\n        /* \"#utility.yul\":13356:13364   */\n      dup4\n        /* \"#utility.yul\":13352:13389   */\n      add\n        /* \"#utility.yul\":13339:13350   */\n      dup3\n        /* \"#utility.yul\":13310:13390   */\n      tag_84\n      jump\t// in\n    tag_224:\n        /* \"#utility.yul\":12969:13400   */\n      pop\n      pop\n        /* \"#utility.yul\":12954:13400   */\n    tag_220:\n        /* \"#utility.yul\":12864:13407   */\n      pop\n      pop\n      pop\n      jump\t// out\n        /* \"#utility.yul\":13413:13530   */\n    tag_86:\n        /* \"#utility.yul\":13467:13475   */\n      0x00\n        /* \"#utility.yul\":13517:13522   */\n      dup3\n        /* \"#utility.yul\":13511:13515   */\n      dup3\n        /* \"#utility.yul\":13507:13523   */\n      shr\n        /* \"#utility.yul\":13486:13523   */\n      swap1\n      pop\n        /* \"#utility.yul\":13413:13530   */\n      swap3\n      swap2\n      pop\n      pop\n      jump\t// out\n        /* \"#utility.yul\":13536:13705   */\n    tag_87:\n        /* \"#utility.yul\":13580:13586   */\n      0x00\n        /* \"#utility.yul\":13613:13664   */\n      tag_228\n        /* \"#utility.yul\":13661:13662   */\n      0x00\n        /* \"#utility.yul\":13657:13663   */\n      not\n        /* \"#utility.yul\":13649:13654   */\n      dup5\n        /* \"#utility.yul\":13646:13647   */\n      0x08\n        /* \"#utility.yul\":13642:13655   */\n      mul\n        /* \"#utility.yul\":13613:13664   */\n      tag_86\n      jump\t// in\n    tag_228:\n        /* \"#utility.yul\":13609:13665   */\n      not\n        /* \"#utility.yul\":13694:13698   */\n      dup1\n        /* \"#utility.yul\":13688:13692   */\n      dup4\n        /* \"#utility.yul\":13684:13699   */\n      and\n        /* \"#utility.yul\":13674:13699   */\n      swap2\n      pop\n        /* \"#utility.yul\":13587:13705   */\n      pop\n        /* \"#utility.yul\":13536:13705   */\n      swap3\n      swap2\n      pop\n      pop\n      jump\t// out\n        /* \"#utility.yul\":13710:14005   */\n    tag_88:\n        /* \"#utility.yul\":13786:13790   */\n      0x00\n        /* \"#utility.yul\":13932:13961   */\n      tag_230\n        /* \"#utility.yul\":13957:13960   */\n      dup4\n        /* \"#utility.yul\":13951:13955   */\n      dup4\n        /* \"#utility.yul\":13932:13961   */\n      tag_87\n      jump\t// in\n    tag_230:\n        /* \"#utility.yul\":13924:13961   */\n      swap2\n      pop\n        /* \"#utility.yul\":13994:13997   */\n      dup3\n        /* \"#utility.yul\":13991:13992   */\n      0x02\n        /* \"#utility.yul\":13987:13998   */\n      mul\n        /* \"#utility.yul\":13981:13985   */\n      dup3\n        /* \"#utility.yul\":13978:13999   */\n      or\n        /* \"#utility.yul\":13970:13999   */\n      swap1\n      pop\n        /* \"#utility.yul\":13710:14005   */\n      swap3\n      swap2\n      pop\n      pop\n      jump\t// out\n        /* \"#utility.yul\":14010:15405   */\n    tag_39:\n        /* \"#utility.yul\":14127:14164   */\n      tag_232\n        /* \"#utility.yul\":14160:14163   */\n      dup3\n        /* \"#utility.yul\":14127:14164   */\n      tag_48\n      jump\t// in\n    tag_232:\n        /* \"#utility.yul\":14229:14247   */\n      0xffffffffffffffff\n        /* \"#utility.yul\":14221:14227   */\n      dup2\n        /* \"#utility.yul\":14218:14248   */\n      gt\n        /* \"#utility.yul\":14215:14271   */\n      iszero\n      tag_233\n      jumpi\n        /* \"#utility.yul\":14251:14269   */\n      tag_234\n      tag_55\n      jump\t// in\n    tag_234:\n        /* \"#utility.yul\":14215:14271   */\n    tag_233:\n        /* \"#utility.yul\":14295:14333   */\n      tag_235\n        /* \"#utility.yul\":14327:14331   */\n      dup3\n        /* \"#utility.yul\":14321:14332   */\n      sload\n        /* \"#utility.yul\":14295:14333   */\n      tag_26\n      jump\t// in\n    tag_235:\n        /* \"#utility.yul\":14380:14447   */\n      tag_236\n        /* \"#utility.yul\":14440:14446   */\n      dup3\n        /* \"#utility.yul\":14432:14438   */\n      dup3\n        /* \"#utility.yul\":14426:14430   */\n      dup6\n        /* \"#utility.yul\":14380:14447   */\n      tag_85\n      jump\t// in\n    tag_236:\n        /* \"#utility.yul\":14474:14475   */\n      0x00\n        /* \"#utility.yul\":14498:14502   */\n      0x20\n        /* \"#utility.yul\":14485:14502   */\n      swap1\n      pop\n        /* \"#utility.yul\":14530:14532   */\n      0x1f\n        /* \"#utility.yul\":14522:14528   */\n      dup4\n        /* \"#utility.yul\":14519:14533   */\n      gt\n        /* \"#utility.yul\":14547:14548   */\n      0x01\n        /* \"#utility.yul\":14542:15160   */\n      dup2\n      eq\n      tag_238\n      jumpi\n        /* \"#utility.yul\":15204:15205   */\n      0x00\n        /* \"#utility.yul\":15221:15227   */\n      dup5\n        /* \"#utility.yul\":15218:15295   */\n      iszero\n      tag_239\n      jumpi\n        /* \"#utility.yul\":15270:15279   */\n      dup3\n        /* \"#utility.yul\":15265:15268   */\n      dup8\n        /* \"#utility.yul\":15261:15280   */\n      add\n        /* \"#utility.yul\":15255:15281   */\n      mload\n        /* \"#utility.yul\":15246:15281   */\n      swap1\n      pop\n        /* \"#utility.yul\":15218:15295   */\n    tag_239:\n        /* \"#utility.yul\":15321:15388   */\n      tag_240\n        /* \"#utility.yul\":15381:15387   */\n      dup6\n        /* \"#utility.yul\":15374:15379   */\n      dup3\n        /* \"#utility.yul\":15321:15388   */\n      tag_88\n      jump\t// in\n    tag_240:\n        /* \"#utility.yul\":15315:15319   */\n      dup7\n        /* \"#utility.yul\":15308:15389   */\n      sstore\n        /* \"#utility.yul\":15177:15399   */\n      pop\n        /* \"#utility.yul\":14512:15399   */\n      jump(tag_237)\n        /* \"#utility.yul\":14542:15160   */\n    tag_238:\n        /* \"#utility.yul\":14594:14598   */\n      0x1f\n        /* \"#utility.yul\":14590:14599   */\n      not\n        /* \"#utility.yul\":14582:14588   */\n      dup5\n        /* \"#utility.yul\":14578:14600   */\n      and\n        /* \"#utility.yul\":14628:14665   */\n      tag_241\n        /* \"#utility.yul\":14660:14664   */\n      dup7\n        /* \"#utility.yul\":14628:14665   */\n      tag_73\n      jump\t// in\n    tag_241:\n        /* \"#utility.yul\":14687:14688   */\n      0x00\n        /* \"#utility.yul\":14701:14909   */\n    tag_242:\n        /* \"#utility.yul\":14715:14722   */\n      dup3\n        /* \"#utility.yul\":14712:14713   */\n      dup2\n        /* \"#utility.yul\":14709:14723   */\n      lt\n        /* \"#utility.yul\":14701:14909   */\n      iszero\n      tag_244\n      jumpi\n        /* \"#utility.yul\":14794:14803   */\n      dup5\n        /* \"#utility.yul\":14789:14792   */\n      dup10\n        /* \"#utility.yul\":14785:14804   */\n      add\n        /* \"#utility.yul\":14779:14805   */\n      mload\n        /* \"#utility.yul\":14771:14777   */\n      dup3\n        /* \"#utility.yul\":14764:14806   */\n      sstore\n        /* \"#utility.yul\":14845:14846   */\n      0x01\n        /* \"#utility.yul\":14837:14843   */\n      dup3\n        /* \"#utility.yul\":14833:14847   */\n      add\n        /* \"#utility.yul\":14823:14847   */\n      swap2\n      pop\n        /* \"#utility.yul\":14892:14894   */\n      0x20\n        /* \"#utility.yul\":14881:14890   */\n      dup6\n        /* \"#utility.yul\":14877:14895   */\n      add\n        /* \"#utility.yul\":14864:14895   */\n      swap5\n      pop\n        /* \"#utility.yul\":14738:14742   */\n      0x20\n        /* \"#utility.yul\":14735:14736   */\n      dup2\n        /* \"#utility.yul\":14731:14743   */\n      add\n        /* \"#utility.yul\":14726:14743   */\n      swap1\n      pop\n        /* \"#utility.yul\":14701:14909   */\n      jump(tag_242)\n    tag_244:\n        /* \"#utility.yul\":14937:14943   */\n      dup7\n        /* \"#utility.yul\":14928:14935   */\n      dup4\n        /* \"#utility.yul\":14925:14944   */\n      lt\n        /* \"#utility.yul\":14922:15101   */\n      iszero\n      tag_245\n      jumpi\n        /* \"#utility.yul\":14995:15004   */\n      dup5\n        /* \"#utility.yul\":14990:14993   */\n      dup10\n        /* \"#utility.yul\":14986:15005   */\n      add\n        /* \"#utility.yul\":14980:15006   */\n      mload\n        /* \"#utility.yul\":15038:15086   */\n      tag_246\n        /* \"#utility.yul\":15080:15084   */\n      0x1f\n        /* \"#utility.yul\":15072:15078   */\n      dup10\n        /* \"#utility.yul\":15068:15085   */\n      and\n        /* \"#utility.yul\":15057:15066   */\n      dup3\n        /* \"#utility.yul\":15038:15086   */\n      tag_87\n      jump\t// in\n    tag_246:\n        /* \"#utility.yul\":15030:15036   */\n      dup4\n        /* \"#utility.yul\":15023:15087   */\n      sstore\n        /* \"#utility.yul\":14945:15101   */\n      pop\n        /* \"#utility.yul\":14922:15101   */\n    tag_245:\n        /* \"#utility.yul\":15147:15148   */\n      0x01\n        /* \"#utility.yul\":15143:15144   */\n      0x02\n        /* \"#utility.yul\":15135:15141   */\n      dup9\n        /* \"#utility.yul\":15131:15145   */\n      mul\n        /* \"#utility.yul\":15127:15149   */\n      add\n        /* \"#utility.yul\":15121:15125   */\n      dup9\n        /* \"#utility.yul\":15114:15150   */\n      sstore\n        /* \"#utility.yul\":14549:15160   */\n      pop\n      pop\n      pop\n        /* \"#utility.yul\":14512:15399   */\n    tag_237:\n      pop\n        /* \"#utility.yul\":14102:15405   */\n      pop\n      pop\n      pop\n        /* \"#utility.yul\":14010:15405   */\n      pop\n      pop\n      jump\t// out\n\n    auxdata: 0xa2646970667358221220271a769654cdc8d0aeabd8563f6b9f7d73b9e20f209140194ed8e8c4d70c2a0164736f6c63430008110033\n}\n",
				"bytecode": {
					"linkReferences": {},
					"object": "608060405234801561001057600080fd5b50735b38da6a701c568545dcfcb03fcb875f56beddc4600260006101000a81548173ffffffffffffffffffffffffffffffffffffffff021916908373ffffffffffffffffffffffffffffffffffffffff160217905550610c0c806100756000396000f3fe608060405234801561001057600080fd5b50600436106100415760003560e01c80632a779c1b14610046578063a372bc0d14610076578063bb1af0fb14610092575b600080fd5b610060600480360381019061005b9190610430565b6100b0565b60405161006d91906104ed565b60405180910390f35b610090600480360381019061008b9190610644565b610211565b005b61009a61036b565b6040516100a79190610706565b60405180910390f35b6060600260009054906101000a900473ffffffffffffffffffffffffffffffffffffffff1673ffffffffffffffffffffffffffffffffffffffff163373ffffffffffffffffffffffffffffffffffffffff1614610142576040517f08c379a000000000000000000000000000000000000000000000000000000000815260040161013990610793565b60405180910390fd5b600160008373ffffffffffffffffffffffffffffffffffffffff1673ffffffffffffffffffffffffffffffffffffffff168152602001908152602001600020805461018c906107e2565b80601f01602080910402602001604051908101604052809291908181526020018280546101b8906107e2565b80156102055780601f106101da57610100808354040283529160200191610205565b820191906000526020600020905b8154815290600101906020018083116101e857829003601f168201915b50505050509050919050565b6000600160003373ffffffffffffffffffffffffffffffffffffffff1673ffffffffffffffffffffffffffffffffffffffff168152602001908152602001600020805461025d906107e2565b90501461029f576040517f08c379a00000000000000000000000000000000000000000000000000000000081526004016102969061085f565b60405180910390fd5b8282826040516020016102b493929190610907565b604051602081830303815290604052600160003373ffffffffffffffffffffffffffffffffffffffff1673ffffffffffffffffffffffffffffffffffffffff168152602001908152602001600020908161030e9190610b04565b5060016000803373ffffffffffffffffffffffffffffffffffffffff1673ffffffffffffffffffffffffffffffffffffffff16815260200190815260200160002060006101000a81548160ff021916908315150217905550505050565b60008060003373ffffffffffffffffffffffffffffffffffffffff1673ffffffffffffffffffffffffffffffffffffffff16815260200190815260200160002060009054906101000a900460ff16905090565b6000604051905090565b600080fd5b600080fd5b600073ffffffffffffffffffffffffffffffffffffffff82169050919050565b60006103fd826103d2565b9050919050565b61040d816103f2565b811461041857600080fd5b50565b60008135905061042a81610404565b92915050565b600060208284031215610446576104456103c8565b5b60006104548482850161041b565b91505092915050565b600081519050919050565b600082825260208201905092915050565b60005b8381101561049757808201518184015260208101905061047c565b60008484015250505050565b6000601f19601f8301169050919050565b60006104bf8261045d565b6104c98185610468565b93506104d9818560208601610479565b6104e2816104a3565b840191505092915050565b6000602082019050818103600083015261050781846104b4565b905092915050565b600080fd5b600080fd5b7f4e487b7100000000000000000000000000000000000000000000000000000000600052604160045260246000fd5b610551826104a3565b810181811067ffffffffffffffff821117156105705761056f610519565b5b80604052505050565b60006105836103be565b905061058f8282610548565b919050565b600067ffffffffffffffff8211156105af576105ae610519565b5b6105b8826104a3565b9050602081019050919050565b82818337600083830152505050565b60006105e76105e284610594565b610579565b90508281526020810184848401111561060357610602610514565b5b61060e8482856105c5565b509392505050565b600082601f83011261062b5761062a61050f565b5b813561063b8482602086016105d4565b91505092915050565b60008060006060848603121561065d5761065c6103c8565b5b600084013567ffffffffffffffff81111561067b5761067a6103cd565b5b61068786828701610616565b935050602084013567ffffffffffffffff8111156106a8576106a76103cd565b5b6106b486828701610616565b925050604084013567ffffffffffffffff8111156106d5576106d46103cd565b5b6106e186828701610616565b9150509250925092565b60008115159050919050565b610700816106eb565b82525050565b600060208201905061071b60008301846106f7565b92915050565b7f4f6e6c7920746865206f776e65722063616e2063616c6c20746869732066756e60008201527f6374696f6e2e0000000000000000000000000000000000000000000000000000602082015250565b600061077d602683610468565b915061078882610721565b604082019050919050565b600060208201905081810360008301526107ac81610770565b9050919050565b7f4e487b7100000000000000000000000000000000000000000000000000000000600052602260045260246000fd5b600060028204905060018216806107fa57607f821691505b60208210810361080d5761080c6107b3565b5b50919050565b7f596f75206861766520616c7265616479207369676e656420696e2e0000000000600082015250565b6000610849601b83610468565b915061085482610813565b602082019050919050565b600060208201905081810360008301526108788161083c565b9050919050565b600081905092915050565b60006108958261045d565b61089f818561087f565b93506108af818560208601610479565b80840191505092915050565b7f2000000000000000000000000000000000000000000000000000000000000000600082015250565b60006108f160018361087f565b91506108fc826108bb565b600182019050919050565b6000610913828661088a565b915061091e826108e4565b915061092a828561088a565b9150610935826108e4565b9150610941828461088a565b9150819050949350505050565b60008190508160005260206000209050919050565b60006020601f8301049050919050565b600082821b905092915050565b6000600883026109b07fffffffffffffffffffffffffffffffffffffffffffffffffffffffffffffffff82610973565b6109ba8683610973565b95508019841693508086168417925050509392505050565b6000819050919050565b6000819050919050565b6000610a016109fc6109f7846109d2565b6109dc565b6109d2565b9050919050565b6000819050919050565b610a1b836109e6565b610a2f610a2782610a08565b848454610980565b825550505050565b600090565b610a44610a37565b610a4f818484610a12565b505050565b5b81811015610a7357610a68600082610a3c565b600181019050610a55565b5050565b601f821115610ab857610a898161094e565b610a9284610963565b81016020851015610aa1578190505b610ab5610aad85610963565b830182610a54565b50505b505050565b600082821c905092915050565b6000610adb60001984600802610abd565b1980831691505092915050565b6000610af48383610aca565b9150826002028217905092915050565b610b0d8261045d565b67ffffffffffffffff811115610b2657610b25610519565b5b610b3082546107e2565b610b3b828285610a77565b600060209050601f831160018114610b6e5760008415610b5c578287015190505b610b668582610ae8565b865550610bce565b601f198416610b7c8661094e565b60005b82811015610ba457848901518255600182019150602085019450602081019050610b7f565b86831015610bc15784890151610bbd601f891682610aca565b8355505b6001600288020188555050505b50505050505056fea2646970667358221220271a769654cdc8d0aeabd8563f6b9f7d73b9e20f209140194ed8e8c4d70c2a0164736f6c63430008110033",
					"opcodes": "PUSH1 0x80 PUSH1 0x40 MSTORE CALLVALUE DUP1 ISZERO PUSH2 0x10 JUMPI PUSH1 0x0 DUP1 REVERT JUMPDEST POP PUSH20 0x5B38DA6A701C568545DCFCB03FCB875F56BEDDC4 PUSH1 0x2 PUSH1 0x0 PUSH2 0x100 EXP DUP2 SLOAD DUP2 PUSH20 0xFFFFFFFFFFFFFFFFFFFFFFFFFFFFFFFFFFFFFFFF MUL NOT AND SWAP1 DUP4 PUSH20 0xFFFFFFFFFFFFFFFFFFFFFFFFFFFFFFFFFFFFFFFF AND MUL OR SWAP1 SSTORE POP PUSH2 0xC0C DUP1 PUSH2 0x75 PUSH1 0x0 CODECOPY PUSH1 0x0 RETURN INVALID PUSH1 0x80 PUSH1 0x40 MSTORE CALLVALUE DUP1 ISZERO PUSH2 0x10 JUMPI PUSH1 0x0 DUP1 REVERT JUMPDEST POP PUSH1 0x4 CALLDATASIZE LT PUSH2 0x41 JUMPI PUSH1 0x0 CALLDATALOAD PUSH1 0xE0 SHR DUP1 PUSH4 0x2A779C1B EQ PUSH2 0x46 JUMPI DUP1 PUSH4 0xA372BC0D EQ PUSH2 0x76 JUMPI DUP1 PUSH4 0xBB1AF0FB EQ PUSH2 0x92 JUMPI JUMPDEST PUSH1 0x0 DUP1 REVERT JUMPDEST PUSH2 0x60 PUSH1 0x4 DUP1 CALLDATASIZE SUB DUP2 ADD SWAP1 PUSH2 0x5B SWAP2 SWAP1 PUSH2 0x430 JUMP JUMPDEST PUSH2 0xB0 JUMP JUMPDEST PUSH1 0x40 MLOAD PUSH2 0x6D SWAP2 SWAP1 PUSH2 0x4ED JUMP JUMPDEST PUSH1 0x40 MLOAD DUP1 SWAP2 SUB SWAP1 RETURN JUMPDEST PUSH2 0x90 PUSH1 0x4 DUP1 CALLDATASIZE SUB DUP2 ADD SWAP1 PUSH2 0x8B SWAP2 SWAP1 PUSH2 0x644 JUMP JUMPDEST PUSH2 0x211 JUMP JUMPDEST STOP JUMPDEST PUSH2 0x9A PUSH2 0x36B JUMP JUMPDEST PUSH1 0x40 MLOAD PUSH2 0xA7 SWAP2 SWAP1 PUSH2 0x706 JUMP JUMPDEST PUSH1 0x40 MLOAD DUP1 SWAP2 SUB SWAP1 RETURN JUMPDEST PUSH1 0x60 PUSH1 0x2 PUSH1 0x0 SWAP1 SLOAD SWAP1 PUSH2 0x100 EXP SWAP1 DIV PUSH20 0xFFFFFFFFFFFFFFFFFFFFFFFFFFFFFFFFFFFFFFFF AND PUSH20 0xFFFFFFFFFFFFFFFFFFFFFFFFFFFFFFFFFFFFFFFF AND CALLER PUSH20 0xFFFFFFFFFFFFFFFFFFFFFFFFFFFFFFFFFFFFFFFF AND EQ PUSH2 0x142 JUMPI PUSH1 0x40 MLOAD PUSH32 0x8C379A000000000000000000000000000000000000000000000000000000000 DUP2 MSTORE PUSH1 0x4 ADD PUSH2 0x139 SWAP1 PUSH2 0x793 JUMP JUMPDEST PUSH1 0x40 MLOAD DUP1 SWAP2 SUB SWAP1 REVERT JUMPDEST PUSH1 0x1 PUSH1 0x0 DUP4 PUSH20 0xFFFFFFFFFFFFFFFFFFFFFFFFFFFFFFFFFFFFFFFF AND PUSH20 0xFFFFFFFFFFFFFFFFFFFFFFFFFFFFFFFFFFFFFFFF AND DUP2 MSTORE PUSH1 0x20 ADD SWAP1 DUP2 MSTORE PUSH1 0x20 ADD PUSH1 0x0 KECCAK256 DUP1 SLOAD PUSH2 0x18C SWAP1 PUSH2 0x7E2 JUMP JUMPDEST DUP1 PUSH1 0x1F ADD PUSH1 0x20 DUP1 SWAP2 DIV MUL PUSH1 0x20 ADD PUSH1 0x40 MLOAD SWAP1 DUP2 ADD PUSH1 0x40 MSTORE DUP1 SWAP3 SWAP2 SWAP1 DUP2 DUP2 MSTORE PUSH1 0x20 ADD DUP3 DUP1 SLOAD PUSH2 0x1B8 SWAP1 PUSH2 0x7E2 JUMP JUMPDEST DUP1 ISZERO PUSH2 0x205 JUMPI DUP1 PUSH1 0x1F LT PUSH2 0x1DA JUMPI PUSH2 0x100 DUP1 DUP4 SLOAD DIV MUL DUP4 MSTORE SWAP2 PUSH1 0x20 ADD SWAP2 PUSH2 0x205 JUMP JUMPDEST DUP3 ADD SWAP2 SWAP1 PUSH1 0x0 MSTORE PUSH1 0x20 PUSH1 0x0 KECCAK256 SWAP1 JUMPDEST DUP2 SLOAD DUP2 MSTORE SWAP1 PUSH1 0x1 ADD SWAP1 PUSH1 0x20 ADD DUP1 DUP4 GT PUSH2 0x1E8 JUMPI DUP3 SWAP1 SUB PUSH1 0x1F AND DUP3 ADD SWAP2 JUMPDEST POP POP POP POP POP SWAP1 POP SWAP2 SWAP1 POP JUMP JUMPDEST PUSH1 0x0 PUSH1 0x1 PUSH1 0x0 CALLER PUSH20 0xFFFFFFFFFFFFFFFFFFFFFFFFFFFFFFFFFFFFFFFF AND PUSH20 0xFFFFFFFFFFFFFFFFFFFFFFFFFFFFFFFFFFFFFFFF AND DUP2 MSTORE PUSH1 0x20 ADD SWAP1 DUP2 MSTORE PUSH1 0x20 ADD PUSH1 0x0 KECCAK256 DUP1 SLOAD PUSH2 0x25D SWAP1 PUSH2 0x7E2 JUMP JUMPDEST SWAP1 POP EQ PUSH2 0x29F JUMPI PUSH1 0x40 MLOAD PUSH32 0x8C379A000000000000000000000000000000000000000000000000000000000 DUP2 MSTORE PUSH1 0x4 ADD PUSH2 0x296 SWAP1 PUSH2 0x85F JUMP JUMPDEST PUSH1 0x40 MLOAD DUP1 SWAP2 SUB SWAP1 REVERT JUMPDEST DUP3 DUP3 DUP3 PUSH1 0x40 MLOAD PUSH1 0x20 ADD PUSH2 0x2B4 SWAP4 SWAP3 SWAP2 SWAP1 PUSH2 0x907 JUMP JUMPDEST PUSH1 0x40 MLOAD PUSH1 0x20 DUP2 DUP4 SUB SUB DUP2 MSTORE SWAP1 PUSH1 0x40 MSTORE PUSH1 0x1 PUSH1 0x0 CALLER PUSH20 0xFFFFFFFFFFFFFFFFFFFFFFFFFFFFFFFFFFFFFFFF AND PUSH20 0xFFFFFFFFFFFFFFFFFFFFFFFFFFFFFFFFFFFFFFFF AND DUP2 MSTORE PUSH1 0x20 ADD SWAP1 DUP2 MSTORE PUSH1 0x20 ADD PUSH1 0x0 KECCAK256 SWAP1 DUP2 PUSH2 0x30E SWAP2 SWAP1 PUSH2 0xB04 JUMP JUMPDEST POP PUSH1 0x1 PUSH1 0x0 DUP1 CALLER PUSH20 0xFFFFFFFFFFFFFFFFFFFFFFFFFFFFFFFFFFFFFFFF AND PUSH20 0xFFFFFFFFFFFFFFFFFFFFFFFFFFFFFFFFFFFFFFFF AND DUP2 MSTORE PUSH1 0x20 ADD SWAP1 DUP2 MSTORE PUSH1 0x20 ADD PUSH1 0x0 KECCAK256 PUSH1 0x0 PUSH2 0x100 EXP DUP2 SLOAD DUP2 PUSH1 0xFF MUL NOT AND SWAP1 DUP4 ISZERO ISZERO MUL OR SWAP1 SSTORE POP POP POP POP JUMP JUMPDEST PUSH1 0x0 DUP1 PUSH1 0x0 CALLER PUSH20 0xFFFFFFFFFFFFFFFFFFFFFFFFFFFFFFFFFFFFFFFF AND PUSH20 0xFFFFFFFFFFFFFFFFFFFFFFFFFFFFFFFFFFFFFFFF AND DUP2 MSTORE PUSH1 0x20 ADD SWAP1 DUP2 MSTORE PUSH1 0x20 ADD PUSH1 0x0 KECCAK256 PUSH1 0x0 SWAP1 SLOAD SWAP1 PUSH2 0x100 EXP SWAP1 DIV PUSH1 0xFF AND SWAP1 POP SWAP1 JUMP JUMPDEST PUSH1 0x0 PUSH1 0x40 MLOAD SWAP1 POP SWAP1 JUMP JUMPDEST PUSH1 0x0 DUP1 REVERT JUMPDEST PUSH1 0x0 DUP1 REVERT JUMPDEST PUSH1 0x0 PUSH20 0xFFFFFFFFFFFFFFFFFFFFFFFFFFFFFFFFFFFFFFFF DUP3 AND SWAP1 POP SWAP2 SWAP1 POP JUMP JUMPDEST PUSH1 0x0 PUSH2 0x3FD DUP3 PUSH2 0x3D2 JUMP JUMPDEST SWAP1 POP SWAP2 SWAP1 POP JUMP JUMPDEST PUSH2 0x40D DUP2 PUSH2 0x3F2 JUMP JUMPDEST DUP2 EQ PUSH2 0x418 JUMPI PUSH1 0x0 DUP1 REVERT JUMPDEST POP JUMP JUMPDEST PUSH1 0x0 DUP2 CALLDATALOAD SWAP1 POP PUSH2 0x42A DUP2 PUSH2 0x404 JUMP JUMPDEST SWAP3 SWAP2 POP POP JUMP JUMPDEST PUSH1 0x0 PUSH1 0x20 DUP3 DUP5 SUB SLT ISZERO PUSH2 0x446 JUMPI PUSH2 0x445 PUSH2 0x3C8 JUMP JUMPDEST JUMPDEST PUSH1 0x0 PUSH2 0x454 DUP5 DUP3 DUP6 ADD PUSH2 0x41B JUMP JUMPDEST SWAP2 POP POP SWAP3 SWAP2 POP POP JUMP JUMPDEST PUSH1 0x0 DUP2 MLOAD SWAP1 POP SWAP2 SWAP1 POP JUMP JUMPDEST PUSH1 0x0 DUP3 DUP3 MSTORE PUSH1 0x20 DUP3 ADD SWAP1 POP SWAP3 SWAP2 POP POP JUMP JUMPDEST PUSH1 0x0 JUMPDEST DUP4 DUP2 LT ISZERO PUSH2 0x497 JUMPI DUP1 DUP3 ADD MLOAD DUP2 DUP5 ADD MSTORE PUSH1 0x20 DUP2 ADD SWAP1 POP PUSH2 0x47C JUMP JUMPDEST PUSH1 0x0 DUP5 DUP5 ADD MSTORE POP POP POP POP JUMP JUMPDEST PUSH1 0x0 PUSH1 0x1F NOT PUSH1 0x1F DUP4 ADD AND SWAP1 POP SWAP2 SWAP1 POP JUMP JUMPDEST PUSH1 0x0 PUSH2 0x4BF DUP3 PUSH2 0x45D JUMP JUMPDEST PUSH2 0x4C9 DUP2 DUP6 PUSH2 0x468 JUMP JUMPDEST SWAP4 POP PUSH2 0x4D9 DUP2 DUP6 PUSH1 0x20 DUP7 ADD PUSH2 0x479 JUMP JUMPDEST PUSH2 0x4E2 DUP2 PUSH2 0x4A3 JUMP JUMPDEST DUP5 ADD SWAP2 POP POP SWAP3 SWAP2 POP POP JUMP JUMPDEST PUSH1 0x0 PUSH1 0x20 DUP3 ADD SWAP1 POP DUP2 DUP2 SUB PUSH1 0x0 DUP4 ADD MSTORE PUSH2 0x507 DUP2 DUP5 PUSH2 0x4B4 JUMP JUMPDEST SWAP1 POP SWAP3 SWAP2 POP POP JUMP JUMPDEST PUSH1 0x0 DUP1 REVERT JUMPDEST PUSH1 0x0 DUP1 REVERT JUMPDEST PUSH32 0x4E487B7100000000000000000000000000000000000000000000000000000000 PUSH1 0x0 MSTORE PUSH1 0x41 PUSH1 0x4 MSTORE PUSH1 0x24 PUSH1 0x0 REVERT JUMPDEST PUSH2 0x551 DUP3 PUSH2 0x4A3 JUMP JUMPDEST DUP2 ADD DUP2 DUP2 LT PUSH8 0xFFFFFFFFFFFFFFFF DUP3 GT OR ISZERO PUSH2 0x570 JUMPI PUSH2 0x56F PUSH2 0x519 JUMP JUMPDEST JUMPDEST DUP1 PUSH1 0x40 MSTORE POP POP POP JUMP JUMPDEST PUSH1 0x0 PUSH2 0x583 PUSH2 0x3BE JUMP JUMPDEST SWAP1 POP PUSH2 0x58F DUP3 DUP3 PUSH2 0x548 JUMP JUMPDEST SWAP2 SWAP1 POP JUMP JUMPDEST PUSH1 0x0 PUSH8 0xFFFFFFFFFFFFFFFF DUP3 GT ISZERO PUSH2 0x5AF JUMPI PUSH2 0x5AE PUSH2 0x519 JUMP JUMPDEST JUMPDEST PUSH2 0x5B8 DUP3 PUSH2 0x4A3 JUMP JUMPDEST SWAP1 POP PUSH1 0x20 DUP2 ADD SWAP1 POP SWAP2 SWAP1 POP JUMP JUMPDEST DUP3 DUP2 DUP4 CALLDATACOPY PUSH1 0x0 DUP4 DUP4 ADD MSTORE POP POP POP JUMP JUMPDEST PUSH1 0x0 PUSH2 0x5E7 PUSH2 0x5E2 DUP5 PUSH2 0x594 JUMP JUMPDEST PUSH2 0x579 JUMP JUMPDEST SWAP1 POP DUP3 DUP2 MSTORE PUSH1 0x20 DUP2 ADD DUP5 DUP5 DUP5 ADD GT ISZERO PUSH2 0x603 JUMPI PUSH2 0x602 PUSH2 0x514 JUMP JUMPDEST JUMPDEST PUSH2 0x60E DUP5 DUP3 DUP6 PUSH2 0x5C5 JUMP JUMPDEST POP SWAP4 SWAP3 POP POP POP JUMP JUMPDEST PUSH1 0x0 DUP3 PUSH1 0x1F DUP4 ADD SLT PUSH2 0x62B JUMPI PUSH2 0x62A PUSH2 0x50F JUMP JUMPDEST JUMPDEST DUP2 CALLDATALOAD PUSH2 0x63B DUP5 DUP3 PUSH1 0x20 DUP7 ADD PUSH2 0x5D4 JUMP JUMPDEST SWAP2 POP POP SWAP3 SWAP2 POP POP JUMP JUMPDEST PUSH1 0x0 DUP1 PUSH1 0x0 PUSH1 0x60 DUP5 DUP7 SUB SLT ISZERO PUSH2 0x65D JUMPI PUSH2 0x65C PUSH2 0x3C8 JUMP JUMPDEST JUMPDEST PUSH1 0x0 DUP5 ADD CALLDATALOAD PUSH8 0xFFFFFFFFFFFFFFFF DUP2 GT ISZERO PUSH2 0x67B JUMPI PUSH2 0x67A PUSH2 0x3CD JUMP JUMPDEST JUMPDEST PUSH2 0x687 DUP7 DUP3 DUP8 ADD PUSH2 0x616 JUMP JUMPDEST SWAP4 POP POP PUSH1 0x20 DUP5 ADD CALLDATALOAD PUSH8 0xFFFFFFFFFFFFFFFF DUP2 GT ISZERO PUSH2 0x6A8 JUMPI PUSH2 0x6A7 PUSH2 0x3CD JUMP JUMPDEST JUMPDEST PUSH2 0x6B4 DUP7 DUP3 DUP8 ADD PUSH2 0x616 JUMP JUMPDEST SWAP3 POP POP PUSH1 0x40 DUP5 ADD CALLDATALOAD PUSH8 0xFFFFFFFFFFFFFFFF DUP2 GT ISZERO PUSH2 0x6D5 JUMPI PUSH2 0x6D4 PUSH2 0x3CD JUMP JUMPDEST JUMPDEST PUSH2 0x6E1 DUP7 DUP3 DUP8 ADD PUSH2 0x616 JUMP JUMPDEST SWAP2 POP POP SWAP3 POP SWAP3 POP SWAP3 JUMP JUMPDEST PUSH1 0x0 DUP2 ISZERO ISZERO SWAP1 POP SWAP2 SWAP1 POP JUMP JUMPDEST PUSH2 0x700 DUP2 PUSH2 0x6EB JUMP JUMPDEST DUP3 MSTORE POP POP JUMP JUMPDEST PUSH1 0x0 PUSH1 0x20 DUP3 ADD SWAP1 POP PUSH2 0x71B PUSH1 0x0 DUP4 ADD DUP5 PUSH2 0x6F7 JUMP JUMPDEST SWAP3 SWAP2 POP POP JUMP JUMPDEST PUSH32 0x4F6E6C7920746865206F776E65722063616E2063616C6C20746869732066756E PUSH1 0x0 DUP3 ADD MSTORE PUSH32 0x6374696F6E2E0000000000000000000000000000000000000000000000000000 PUSH1 0x20 DUP3 ADD MSTORE POP JUMP JUMPDEST PUSH1 0x0 PUSH2 0x77D PUSH1 0x26 DUP4 PUSH2 0x468 JUMP JUMPDEST SWAP2 POP PUSH2 0x788 DUP3 PUSH2 0x721 JUMP JUMPDEST PUSH1 0x40 DUP3 ADD SWAP1 POP SWAP2 SWAP1 POP JUMP JUMPDEST PUSH1 0x0 PUSH1 0x20 DUP3 ADD SWAP1 POP DUP2 DUP2 SUB PUSH1 0x0 DUP4 ADD MSTORE PUSH2 0x7AC DUP2 PUSH2 0x770 JUMP JUMPDEST SWAP1 POP SWAP2 SWAP1 POP JUMP JUMPDEST PUSH32 0x4E487B7100000000000000000000000000000000000000000000000000000000 PUSH1 0x0 MSTORE PUSH1 0x22 PUSH1 0x4 MSTORE PUSH1 0x24 PUSH1 0x0 REVERT JUMPDEST PUSH1 0x0 PUSH1 0x2 DUP3 DIV SWAP1 POP PUSH1 0x1 DUP3 AND DUP1 PUSH2 0x7FA JUMPI PUSH1 0x7F DUP3 AND SWAP2 POP JUMPDEST PUSH1 0x20 DUP3 LT DUP2 SUB PUSH2 0x80D JUMPI PUSH2 0x80C PUSH2 0x7B3 JUMP JUMPDEST JUMPDEST POP SWAP2 SWAP1 POP JUMP JUMPDEST PUSH32 0x596F75206861766520616C7265616479207369676E656420696E2E0000000000 PUSH1 0x0 DUP3 ADD MSTORE POP JUMP JUMPDEST PUSH1 0x0 PUSH2 0x849 PUSH1 0x1B DUP4 PUSH2 0x468 JUMP JUMPDEST SWAP2 POP PUSH2 0x854 DUP3 PUSH2 0x813 JUMP JUMPDEST PUSH1 0x20 DUP3 ADD SWAP1 POP SWAP2 SWAP1 POP JUMP JUMPDEST PUSH1 0x0 PUSH1 0x20 DUP3 ADD SWAP1 POP DUP2 DUP2 SUB PUSH1 0x0 DUP4 ADD MSTORE PUSH2 0x878 DUP2 PUSH2 0x83C JUMP JUMPDEST SWAP1 POP SWAP2 SWAP1 POP JUMP JUMPDEST PUSH1 0x0 DUP2 SWAP1 POP SWAP3 SWAP2 POP POP JUMP JUMPDEST PUSH1 0x0 PUSH2 0x895 DUP3 PUSH2 0x45D JUMP JUMPDEST PUSH2 0x89F DUP2 DUP6 PUSH2 0x87F JUMP JUMPDEST SWAP4 POP PUSH2 0x8AF DUP2 DUP6 PUSH1 0x20 DUP7 ADD PUSH2 0x479 JUMP JUMPDEST DUP1 DUP5 ADD SWAP2 POP POP SWAP3 SWAP2 POP POP JUMP JUMPDEST PUSH32 0x2000000000000000000000000000000000000000000000000000000000000000 PUSH1 0x0 DUP3 ADD MSTORE POP JUMP JUMPDEST PUSH1 0x0 PUSH2 0x8F1 PUSH1 0x1 DUP4 PUSH2 0x87F JUMP JUMPDEST SWAP2 POP PUSH2 0x8FC DUP3 PUSH2 0x8BB JUMP JUMPDEST PUSH1 0x1 DUP3 ADD SWAP1 POP SWAP2 SWAP1 POP JUMP JUMPDEST PUSH1 0x0 PUSH2 0x913 DUP3 DUP7 PUSH2 0x88A JUMP JUMPDEST SWAP2 POP PUSH2 0x91E DUP3 PUSH2 0x8E4 JUMP JUMPDEST SWAP2 POP PUSH2 0x92A DUP3 DUP6 PUSH2 0x88A JUMP JUMPDEST SWAP2 POP PUSH2 0x935 DUP3 PUSH2 0x8E4 JUMP JUMPDEST SWAP2 POP PUSH2 0x941 DUP3 DUP5 PUSH2 0x88A JUMP JUMPDEST SWAP2 POP DUP2 SWAP1 POP SWAP5 SWAP4 POP POP POP POP JUMP JUMPDEST PUSH1 0x0 DUP2 SWAP1 POP DUP2 PUSH1 0x0 MSTORE PUSH1 0x20 PUSH1 0x0 KECCAK256 SWAP1 POP SWAP2 SWAP1 POP JUMP JUMPDEST PUSH1 0x0 PUSH1 0x20 PUSH1 0x1F DUP4 ADD DIV SWAP1 POP SWAP2 SWAP1 POP JUMP JUMPDEST PUSH1 0x0 DUP3 DUP3 SHL SWAP1 POP SWAP3 SWAP2 POP POP JUMP JUMPDEST PUSH1 0x0 PUSH1 0x8 DUP4 MUL PUSH2 0x9B0 PUSH32 0xFFFFFFFFFFFFFFFFFFFFFFFFFFFFFFFFFFFFFFFFFFFFFFFFFFFFFFFFFFFFFFFF DUP3 PUSH2 0x973 JUMP JUMPDEST PUSH2 0x9BA DUP7 DUP4 PUSH2 0x973 JUMP JUMPDEST SWAP6 POP DUP1 NOT DUP5 AND SWAP4 POP DUP1 DUP7 AND DUP5 OR SWAP3 POP POP POP SWAP4 SWAP3 POP POP POP JUMP JUMPDEST PUSH1 0x0 DUP2 SWAP1 POP SWAP2 SWAP1 POP JUMP JUMPDEST PUSH1 0x0 DUP2 SWAP1 POP SWAP2 SWAP1 POP JUMP JUMPDEST PUSH1 0x0 PUSH2 0xA01 PUSH2 0x9FC PUSH2 0x9F7 DUP5 PUSH2 0x9D2 JUMP JUMPDEST PUSH2 0x9DC JUMP JUMPDEST PUSH2 0x9D2 JUMP JUMPDEST SWAP1 POP SWAP2 SWAP1 POP JUMP JUMPDEST PUSH1 0x0 DUP2 SWAP1 POP SWAP2 SWAP1 POP JUMP JUMPDEST PUSH2 0xA1B DUP4 PUSH2 0x9E6 JUMP JUMPDEST PUSH2 0xA2F PUSH2 0xA27 DUP3 PUSH2 0xA08 JUMP JUMPDEST DUP5 DUP5 SLOAD PUSH2 0x980 JUMP JUMPDEST DUP3 SSTORE POP POP POP POP JUMP JUMPDEST PUSH1 0x0 SWAP1 JUMP JUMPDEST PUSH2 0xA44 PUSH2 0xA37 JUMP JUMPDEST PUSH2 0xA4F DUP2 DUP5 DUP5 PUSH2 0xA12 JUMP JUMPDEST POP POP POP JUMP JUMPDEST JUMPDEST DUP2 DUP2 LT ISZERO PUSH2 0xA73 JUMPI PUSH2 0xA68 PUSH1 0x0 DUP3 PUSH2 0xA3C JUMP JUMPDEST PUSH1 0x1 DUP2 ADD SWAP1 POP PUSH2 0xA55 JUMP JUMPDEST POP POP JUMP JUMPDEST PUSH1 0x1F DUP3 GT ISZERO PUSH2 0xAB8 JUMPI PUSH2 0xA89 DUP2 PUSH2 0x94E JUMP JUMPDEST PUSH2 0xA92 DUP5 PUSH2 0x963 JUMP JUMPDEST DUP2 ADD PUSH1 0x20 DUP6 LT ISZERO PUSH2 0xAA1 JUMPI DUP2 SWAP1 POP JUMPDEST PUSH2 0xAB5 PUSH2 0xAAD DUP6 PUSH2 0x963 JUMP JUMPDEST DUP4 ADD DUP3 PUSH2 0xA54 JUMP JUMPDEST POP POP JUMPDEST POP POP POP JUMP JUMPDEST PUSH1 0x0 DUP3 DUP3 SHR SWAP1 POP SWAP3 SWAP2 POP POP JUMP JUMPDEST PUSH1 0x0 PUSH2 0xADB PUSH1 0x0 NOT DUP5 PUSH1 0x8 MUL PUSH2 0xABD JUMP JUMPDEST NOT DUP1 DUP4 AND SWAP2 POP POP SWAP3 SWAP2 POP POP JUMP JUMPDEST PUSH1 0x0 PUSH2 0xAF4 DUP4 DUP4 PUSH2 0xACA JUMP JUMPDEST SWAP2 POP DUP3 PUSH1 0x2 MUL DUP3 OR SWAP1 POP SWAP3 SWAP2 POP POP JUMP JUMPDEST PUSH2 0xB0D DUP3 PUSH2 0x45D JUMP JUMPDEST PUSH8 0xFFFFFFFFFFFFFFFF DUP2 GT ISZERO PUSH2 0xB26 JUMPI PUSH2 0xB25 PUSH2 0x519 JUMP JUMPDEST JUMPDEST PUSH2 0xB30 DUP3 SLOAD PUSH2 0x7E2 JUMP JUMPDEST PUSH2 0xB3B DUP3 DUP3 DUP6 PUSH2 0xA77 JUMP JUMPDEST PUSH1 0x0 PUSH1 0x20 SWAP1 POP PUSH1 0x1F DUP4 GT PUSH1 0x1 DUP2 EQ PUSH2 0xB6E JUMPI PUSH1 0x0 DUP5 ISZERO PUSH2 0xB5C JUMPI DUP3 DUP8 ADD MLOAD SWAP1 POP JUMPDEST PUSH2 0xB66 DUP6 DUP3 PUSH2 0xAE8 JUMP JUMPDEST DUP7 SSTORE POP PUSH2 0xBCE JUMP JUMPDEST PUSH1 0x1F NOT DUP5 AND PUSH2 0xB7C DUP7 PUSH2 0x94E JUMP JUMPDEST PUSH1 0x0 JUMPDEST DUP3 DUP2 LT ISZERO PUSH2 0xBA4 JUMPI DUP5 DUP10 ADD MLOAD DUP3 SSTORE PUSH1 0x1 DUP3 ADD SWAP2 POP PUSH1 0x20 DUP6 ADD SWAP5 POP PUSH1 0x20 DUP2 ADD SWAP1 POP PUSH2 0xB7F JUMP JUMPDEST DUP7 DUP4 LT ISZERO PUSH2 0xBC1 JUMPI DUP5 DUP10 ADD MLOAD PUSH2 0xBBD PUSH1 0x1F DUP10 AND DUP3 PUSH2 0xACA JUMP JUMPDEST DUP4 SSTORE POP JUMPDEST PUSH1 0x1 PUSH1 0x2 DUP9 MUL ADD DUP9 SSTORE POP POP POP JUMPDEST POP POP POP POP POP POP JUMP INVALID LOG2 PUSH5 0x6970667358 0x22 SLT KECCAK256 0x27 BYTE PUSH23 0x9654CDC8D0AEABD8563F6B9F7D73B9E20F209140194ED8 0xE8 0xC4 0xD7 0xC 0x2A ADD PUSH5 0x736F6C6343 STOP ADDMOD GT STOP CALLER "
				},
				"gasEstimates": {
					"creation": {
						"codeDepositCost": "616800",
						"executionCost": "24918",
						"totalCost": "641718"
					},
					"external": {
						"checkMyPresence()": "2590",
						"getStudentSigned(address)": "infinite",
						"studentSign(string,string,string)": "infinite"
					}
				},
				"methodIdentifiers": {
					"checkMyPresence()": "bb1af0fb",
					"getStudentSigned(address)": "2a779c1b",
					"studentSign(string,string,string)": "a372bc0d"
				}
			},
			"storageLayout": {
				"storage": [
					{
						"astId": 6,
						"contract": "contracts/test.sol:PresenceContract",
						"label": "studentPresence",
						"offset": 0,
						"slot": "0",
						"type": "t_mapping(t_address,t_bool)"
					},
					{
						"astId": 10,
						"contract": "contracts/test.sol:PresenceContract",
						"label": "studentNames",
						"offset": 0,
						"slot": "1",
						"type": "t_mapping(t_address,t_string_storage)"
					},
					{
						"astId": 12,
						"contract": "contracts/test.sol:PresenceContract",
						"label": "owner",
						"offset": 0,
						"slot": "2",
						"type": "t_address"
					}
				],
				"types": {
					"t_address": {
						"encoding": "inplace",
						"label": "address",
						"numberOfBytes": "20"
					},
					"t_bool": {
						"encoding": "inplace",
						"label": "bool",
						"numberOfBytes": "1"
					},
					"t_mapping(t_address,t_bool)": {
						"encoding": "mapping",
						"key": "t_address",
						"label": "mapping(address => bool)",
						"numberOfBytes": "32",
						"value": "t_bool"
					},
					"t_mapping(t_address,t_string_storage)": {
						"encoding": "mapping",
						"key": "t_address",
						"label": "mapping(address => string)",
						"numberOfBytes": "32",
						"value": "t_string_storage"
					},
					"t_string_storage": {
						"encoding": "bytes",
						"label": "string",
						"numberOfBytes": "32"
					}
				}
			},
			"userdoc": {
				"kind": "user",
				"methods": {},
				"notice": "SPDX-License-Identifier: GPL-3.0",
				"version": 1
			}
		}
	}
}