{
  "contractName": "Marketplace",
  "abi": [
    {
      "inputs": [],
      "stateMutability": "nonpayable",
      "type": "constructor"
    },
    {
      "anonymous": false,
      "inputs": [],
      "name": "MissionComplete",
      "type": "event"
    },
    {
      "inputs": [],
      "name": "status",
      "outputs": [
        {
          "internalType": "enum Marketplace.ShippingStatus",
          "name": "",
          "type": "uint8"
        }
      ],
      "stateMutability": "view",
      "type": "function"
    },
    {
      "inputs": [],
      "name": "ship",
      "outputs": [],
      "stateMutability": "nonpayable",
      "type": "function"
    },
    {
      "inputs": [],
      "name": "deliver",
      "outputs": [],
      "stateMutability": "nonpayable",
      "type": "function"
    },
    {
      "inputs": [],
      "name": "getStatus",
      "outputs": [
        {
          "internalType": "enum Marketplace.ShippingStatus",
          "name": "",
          "type": "uint8"
        }
      ],
      "stateMutability": "view",
      "type": "function"
    },
    {
      "inputs": [],
      "name": "checkStatus",
      "outputs": [
        {
          "internalType": "enum Marketplace.ShippingStatus",
          "name": "",
          "type": "uint8"
        }
      ],
      "stateMutability": "payable",
      "type": "function"
    }
  ],
  "bytecode": "0x608060405234801561001057600080fd5b506000805461010033026001600160a81b0319909116179055610339806100386000396000f3fe60806040526004361061004a5760003560e01c8063200d2ed21461004f5780633b7104f21461007f5780634e69d56014610087578063b6bef7b31461009c578063fd3e50a7146100b3575b600080fd5b34801561005b57600080fd5b506000546100699060ff1681565b6040516100769190610296565b60405180910390f35b6100696100c8565b34801561009357600080fd5b506100696101b5565b3480156100a857600080fd5b506100b16101e5565b005b3480156100bf57600080fd5b506100b1610253565b6000805461010090046001600160a01b031633141561013f5760405162461bcd60e51b815260206004820152602860248201527f4f6e6c792074686520637573746f6d65722063616e2063616c6c207468697320604482015267333ab731ba34b7b760c11b60648201526084015b60405180910390fd5b670de0b6b3a76400003410156101ab5760405162461bcd60e51b815260206004820152602b60248201527f5061796d656e74206f66203120657468657220726571756972656420746f206360448201526a6865636b2073746174757360a81b6064820152608401610136565b5060005460ff1690565b6000805461010090046001600160a01b031633146101ab5760405162461bcd60e51b8152600401610136906102be565b60005461010090046001600160a01b031633146102145760405162461bcd60e51b8152600401610136906102be565b600080546001919060ff191682805b02179055506040517f36b3427b9db85e3915108cfe803971ea1ab2908152d7f72b55bf3a001c67a86590600090a1565b60005461010090046001600160a01b031633146102825760405162461bcd60e51b8152600401610136906102be565b600080546002919060ff1916600183610223565b60208101600383106102b857634e487b7160e01b600052602160045260246000fd5b91905290565b60208082526025908201527f4f6e6c7920746865206f776e65722063616e2063616c6c20746869732066756e60408201526431ba34b7b760d91b60608201526080019056fea2646970667358221220768ce836c780aecddd7b4d1b7bced0c26b535b440e6ee10773490600a180050064736f6c63430008090033",
  "immutableReferences": {},
  "source": "// SPDX-License-Identifier: MIT\r\n\r\npragma solidity ^0.8.0;\r\n\r\n/**\r\n * @title Sign\r\n * @dev Sign & retrieve value in a variable\r\n * @custom:dev-run-script ./scripts/deploy_with_ethers.ts\r\n */\r\n\r\ncontract Marketplace {\r\n    \r\n    enum ShippingStatus {\r\n        Pending,\r\n        Shipped,\r\n        Delivered\r\n    }\r\n    \r\n    ShippingStatus public status;\r\n    \r\n    event MissionComplete();\r\n    \r\n    address owner;\r\n    \r\n    constructor() {\r\n        status = ShippingStatus.Pending;\r\n        owner = msg.sender;\r\n    }\r\n    \r\n    modifier onlyOwner {\r\n        require(msg.sender == owner, \"Only the owner can call this function\");\r\n        _;\r\n    }\r\n    \r\n    modifier onlyCustomer {\r\n        require(msg.sender != owner, \"Only the customer can call this function\");\r\n        _;\r\n    }\r\n    \r\n    function ship() public onlyOwner {\r\n        status = ShippingStatus.Shipped;\r\n        emit MissionComplete();\r\n    }\r\n    \r\n    function deliver() public onlyOwner {\r\n        status = ShippingStatus.Delivered;\r\n        emit MissionComplete();\r\n    }\r\n    \r\n    function getStatus() public view onlyOwner returns (ShippingStatus) {\r\n        return status;\r\n    }\r\n    \r\n    function checkStatus() public onlyCustomer payable returns (ShippingStatus) {\r\n        require(msg.value >= 1 ether, \"Payment of 1 ether required to check status\");\r\n        return status;\r\n    }\r\n}\r\n",
  "sourcePath": "C:\\Users\\quent\\Documents\\cours\\blockchain\\tp_final\\contracts\\Markeplace.sol",
  "compiler": {
    "name": "solc",
    "version": "0.8.9+commit.e5eed63a.Emscripten.clang"
  },
  "schemaVersion": "3.4.13",
  "updatedAt": "2023-03-09T10:14:14.293Z",
  "devdoc": {
    "custom:dev-run-script": "./scripts/deploy_with_ethers.ts",
    "details": "Sign & retrieve value in a variable",
    "kind": "dev",
    "methods": {},
    "title": "Sign",
    "version": 1
  },
  "userdoc": {
    "kind": "user",
    "methods": {},
    "version": 1
  }
}